{
  "_format": "hh-sol-artifact-1",
  "contractName": "V3Oracle",
  "sourceName": "contracts/V3Oracle.sol",
  "abi": [
    {
      "inputs": [
        {
          "internalType": "address",
          "name": "_ulmState",
          "type": "address"
        }
      ],
      "stateMutability": "nonpayable",
      "type": "constructor"
    },
    {
      "anonymous": false,
      "inputs": [
        {
          "indexed": false,
          "internalType": "address",
          "name": "oldGovernance",
          "type": "address"
        },
        {
          "indexed": false,
          "internalType": "address",
          "name": "newGovernance",
          "type": "address"
        }
      ],
      "name": "GovernanceUpdated",
      "type": "event"
    },
    {
      "anonymous": false,
      "inputs": [
        {
          "indexed": false,
          "internalType": "address",
          "name": "oldUlmState",
          "type": "address"
        },
        {
          "indexed": false,
          "internalType": "address",
          "name": "newUlmState",
          "type": "address"
        }
      ],
      "name": "ULMStateUpdated",
      "type": "event"
    },
    {
      "inputs": [],
      "name": "DAI",
      "outputs": [
        {
          "internalType": "address",
          "name": "",
          "type": "address"
        }
      ],
      "stateMutability": "view",
      "type": "function"
    },
    {
      "inputs": [],
      "name": "LIQUIDITY_VALIDATION_AMOUNT",
      "outputs": [
        {
          "internalType": "uint256",
          "name": "",
          "type": "uint256"
        }
      ],
      "stateMutability": "view",
      "type": "function"
    },
    {
      "inputs": [],
      "name": "PILOT",
      "outputs": [
        {
          "internalType": "address",
          "name": "",
          "type": "address"
        }
      ],
      "stateMutability": "view",
      "type": "function"
    },
    {
      "inputs": [],
      "name": "UNISWAP_FACTORY",
      "outputs": [
        {
          "internalType": "address",
          "name": "",
          "type": "address"
        }
      ],
      "stateMutability": "view",
      "type": "function"
    },
    {
      "inputs": [],
      "name": "USDC",
      "outputs": [
        {
          "internalType": "address",
          "name": "",
          "type": "address"
        }
      ],
      "stateMutability": "view",
      "type": "function"
    },
    {
      "inputs": [],
      "name": "USDT",
      "outputs": [
        {
          "internalType": "address",
          "name": "",
          "type": "address"
        }
      ],
      "stateMutability": "view",
      "type": "function"
    },
    {
      "inputs": [],
      "name": "WETH",
      "outputs": [
        {
          "internalType": "address",
          "name": "",
          "type": "address"
        }
      ],
      "stateMutability": "view",
      "type": "function"
    },
    {
      "inputs": [
        {
          "internalType": "address",
          "name": "token",
          "type": "address"
        },
        {
          "internalType": "uint24",
          "name": "fees",
          "type": "uint24"
        },
        {
          "internalType": "uint256",
          "name": "amountIn",
          "type": "uint256"
        }
      ],
      "name": "assetToEth",
      "outputs": [
        {
          "internalType": "uint256",
          "name": "ethAmountOut",
          "type": "uint256"
        }
      ],
      "stateMutability": "view",
      "type": "function"
    },
    {
      "inputs": [
        {
          "internalType": "address",
          "name": "token0",
          "type": "address"
        },
        {
          "internalType": "address",
          "name": "token1",
          "type": "address"
        },
        {
          "internalType": "uint256",
          "name": "amount0",
          "type": "uint256"
        },
        {
          "internalType": "uint256",
          "name": "amount1",
          "type": "uint256"
        }
      ],
      "name": "checkPoolLiquidity",
      "outputs": [
        {
          "internalType": "uint256",
          "name": "totalUSDAmount",
          "type": "uint256"
        }
      ],
      "stateMutability": "view",
      "type": "function"
    },
    {
      "inputs": [
        {
          "internalType": "address",
          "name": "token0",
          "type": "address"
        },
        {
          "internalType": "address",
          "name": "token1",
          "type": "address"
        },
        {
          "internalType": "uint256",
          "name": "amount0",
          "type": "uint256"
        },
        {
          "internalType": "uint256",
          "name": "amount1",
          "type": "uint256"
        }
      ],
      "name": "checkPoolValidation",
      "outputs": [
        {
          "internalType": "bool",
          "name": "isClaimable",
          "type": "bool"
        }
      ],
      "stateMutability": "view",
      "type": "function"
    },
    {
      "inputs": [
        {
          "internalType": "address",
          "name": "tokenOut",
          "type": "address"
        },
        {
          "internalType": "uint24",
          "name": "fees",
          "type": "uint24"
        },
        {
          "internalType": "uint256",
          "name": "amountIn",
          "type": "uint256"
        }
      ],
      "name": "ethToAsset",
      "outputs": [
        {
          "internalType": "uint256",
          "name": "amountOut",
          "type": "uint256"
        }
      ],
      "stateMutability": "view",
      "type": "function"
    },
    {
      "inputs": [
        {
          "internalType": "address",
          "name": "token",
          "type": "address"
        },
        {
          "internalType": "uint256",
          "name": "amount",
          "type": "uint256"
        }
      ],
      "name": "getPilotAmount",
      "outputs": [
        {
          "internalType": "uint256",
          "name": "pilotAmount",
          "type": "uint256"
        }
      ],
      "stateMutability": "view",
      "type": "function"
    },
    {
      "inputs": [
        {
          "internalType": "address",
          "name": "token0",
          "type": "address"
        },
        {
          "internalType": "address",
          "name": "token1",
          "type": "address"
        },
        {
          "internalType": "uint256",
          "name": "amount0",
          "type": "uint256"
        },
        {
          "internalType": "uint256",
          "name": "amount1",
          "type": "uint256"
        }
      ],
      "name": "getPilotAmountForTokens",
      "outputs": [
        {
          "internalType": "uint256",
          "name": "total",
          "type": "uint256"
        }
      ],
      "stateMutability": "view",
      "type": "function"
    },
    {
      "inputs": [
        {
          "internalType": "address",
          "name": "tokenAlt",
          "type": "address"
        },
        {
          "internalType": "uint256",
          "name": "altAmount",
          "type": "uint256"
        },
        {
          "internalType": "uint256",
          "name": "wethAmount",
          "type": "uint256"
        }
      ],
      "name": "getPilotAmountWethPair",
      "outputs": [
        {
          "internalType": "uint256",
          "name": "amount",
          "type": "uint256"
        }
      ],
      "stateMutability": "view",
      "type": "function"
    },
    {
      "inputs": [
        {
          "internalType": "address",
          "name": "tokenA",
          "type": "address"
        },
        {
          "internalType": "address",
          "name": "tokenB",
          "type": "address"
        },
        {
          "internalType": "uint24",
          "name": "_poolFee",
          "type": "uint24"
        },
        {
          "internalType": "uint256",
          "name": "_amountIn",
          "type": "uint256"
        }
      ],
      "name": "getPrice",
      "outputs": [
        {
          "internalType": "uint256",
          "name": "amountOut",
          "type": "uint256"
        }
      ],
      "stateMutability": "view",
      "type": "function"
    },
    {
      "inputs": [
        {
          "internalType": "address",
          "name": "token",
          "type": "address"
        }
      ],
      "name": "getTokenStablePairWithMaxLiquidity",
      "outputs": [
        {
          "internalType": "address",
          "name": "",
          "type": "address"
        }
      ],
      "stateMutability": "view",
      "type": "function"
    },
    {
      "inputs": [
        {
          "internalType": "address",
          "name": "token",
          "type": "address"
        }
      ],
      "name": "getTokenWethPairWithMaxLiquidity",
      "outputs": [
        {
          "internalType": "address",
          "name": "",
          "type": "address"
        }
      ],
      "stateMutability": "view",
      "type": "function"
    },
    {
      "inputs": [
        {
          "internalType": "address",
          "name": "pool",
          "type": "address"
        },
        {
          "internalType": "uint256",
          "name": "amount",
          "type": "uint256"
        }
      ],
      "name": "getUSDAmount",
      "outputs": [
        {
          "internalType": "uint256",
          "name": "usdAmount",
          "type": "uint256"
        }
      ],
      "stateMutability": "view",
      "type": "function"
    },
    {
      "inputs": [
        {
          "internalType": "address",
          "name": "pool",
          "type": "address"
        },
        {
          "internalType": "uint256",
          "name": "amount",
          "type": "uint256"
        }
      ],
      "name": "getWETHAmount",
      "outputs": [
        {
          "internalType": "uint256",
          "name": "wethAmount",
          "type": "uint256"
        }
      ],
      "stateMutability": "view",
      "type": "function"
    },
    {
      "inputs": [],
      "name": "governance",
      "outputs": [
        {
          "internalType": "address",
          "name": "",
          "type": "address"
        }
      ],
      "stateMutability": "view",
      "type": "function"
    },
    {
      "inputs": [
        {
          "internalType": "address",
          "name": "token0",
          "type": "address"
        },
        {
          "internalType": "address",
          "name": "token1",
          "type": "address"
        },
        {
          "internalType": "uint256",
          "name": "amount0",
          "type": "uint256"
        },
        {
          "internalType": "uint256",
          "name": "amount1",
          "type": "uint256"
        },
        {
          "internalType": "uint8",
          "name": "percentage",
          "type": "uint8"
        }
      ],
      "name": "pilotAmountForFees",
      "outputs": [
        {
          "internalType": "uint256",
          "name": "pilotAmount",
          "type": "uint256"
        }
      ],
      "stateMutability": "view",
      "type": "function"
    },
    {
      "inputs": [
        {
          "internalType": "address",
          "name": "_governance",
          "type": "address"
        }
      ],
      "name": "setGovernance",
      "outputs": [],
      "stateMutability": "nonpayable",
      "type": "function"
    },
    {
      "inputs": [
        {
          "internalType": "address",
          "name": "_ulmState",
          "type": "address"
        }
      ],
      "name": "setUlmState",
      "outputs": [],
      "stateMutability": "nonpayable",
      "type": "function"
    },
    {
      "inputs": [],
      "name": "ulmState",
      "outputs": [
        {
          "internalType": "address",
          "name": "",
          "type": "address"
        }
      ],
      "stateMutability": "view",
      "type": "function"
    }
  ],
  "bytecode": "0x608060405234801561001057600080fd5b50604051611c7f380380611c7f8339818101604052602081101561003357600080fd5b5051600080546001600160a01b03199081163317909155600180546001600160a01b0390931692909116919091179055611c0d806100726000396000f3fe608060405234801561001057600080fd5b50600436106101285760003560e01c80630975094d1461012d57806311c48d041461016f5780631ed27e18146101b8578063213be025146101e05780632d2d88311461020c5780635701eec9146102485780635aa6e6751461025057806368b850bb146102585780636eb5d4071461028f57806375d3cd85146102df57806380ba32701461032057806389a302711461035c578063a837b35514610364578063ab033ea914610390578063ad5c4648146103b6578063ae841f49146103be578063c54e44eb14610404578063c7110ae21461040c578063c74c0fac14610432578063d973a3e51461043a578063e0bab4c41461046c578063ea9eb49314610474578063ec0e5f5e146104a0578063f01f3dc0146104a8575b600080fd5b6101536004803603602081101561014357600080fd5b50356001600160a01b03166104b0565b604080516001600160a01b039092168252519081900360200190f35b6101a66004803603606081101561018557600080fd5b506001600160a01b038135169062ffffff60208201351690604001356105c3565b60408051918252519081900360200190f35b6101de600480360360208110156101ce57600080fd5b50356001600160a01b03166105ef565b005b6101a6600480360360408110156101f657600080fd5b506001600160a01b0381351690602001356106dd565b6101a66004803603608081101561022257600080fd5b506001600160a01b03813581169160208101359091169060408101359060600135610880565b6101536108ad565b6101536108bc565b6101a66004803603606081101561026e57600080fd5b506001600160a01b038135169062ffffff60208201351690604001356108cb565b6102cb600480360360808110156102a557600080fd5b506001600160a01b038135811691602081013590911690604081013590606001356108ed565b604080519115158252519081900360200190f35b6101a6600480360360808110156102f557600080fd5b506001600160a01b03813581169160208101359091169062ffffff6040820135169060600135610923565b6101a66004803603608081101561033657600080fd5b506001600160a01b038135811691602081013590911690604081013590606001356109f9565b610153610bca565b6101a66004803603604081101561037a57600080fd5b506001600160a01b038135169060200135610be2565b6101de600480360360208110156103a657600080fd5b50356001600160a01b0316610daf565b610153610e9e565b6101a6600480360360a08110156103d457600080fd5b5080356001600160a01b03908116916020810135909116906040810135906060810135906080013560ff16610eb6565b610153610ef8565b6101536004803603602081101561042257600080fd5b50356001600160a01b0316610f10565b610153611080565b6101a66004803603606081101561045057600080fd5b506001600160a01b038135169060208101359060400135611098565b6101536110d6565b6101a66004803603604081101561048a57600080fd5b506001600160a01b0381351690602001356110ee565b6101536111ae565b6101a66111c6565b60408051606081018252610bb881526101f4602082015261271091810191909152600090819081908180805b60038160ff1610156105b65761051e8873b91345b44a81e23848bd0f5b9ae452fd7b48d7e5868460ff166003811061051057fe5b602002015161ffff166111d4565b95506001600160a01b038616156105ae57856001600160a01b0316631a6865026040518163ffffffff1660e01b815260040160206040518083038186803b15801561056857600080fd5b505afa15801561057c573d6000803e3d6000fd5b505050506040513d602081101561059257600080fd5b50516001600160801b03169450828511156105ae578492508591505b6001016104dc565b509450505050505b919050565b60006105e58473b91345b44a81e23848bd0f5b9ae452fd7b48d7e58585610923565b90505b9392505050565b6000546001600160a01b03163314610633576040805162461bcd60e51b81526020600482015260026024820152614e4760f01b604482015290519081900360640190fd5b6001600160a01b038116610673576040805162461bcd60e51b8152602060048201526002602482015261494160f01b604482015290519081900360640190fd5b600154604080516001600160a01b039283168152918316602083015280517fda8481619deddd6ef87ea7a2328b8e94d3c22fc2d2ac354147d7a3b803a9b7c49281900390910190a1600180546001600160a01b0319166001600160a01b0392909216919091179055565b6000808390506000806000836001600160a01b0316630dfe16816040518163ffffffff1660e01b815260040160206040518083038186803b15801561072157600080fd5b505afa158015610735573d6000803e3d6000fd5b505050506040513d602081101561074b57600080fd5b50516040805163d21220a760e01b815290516001600160a01b0387169163d21220a7916004808301926020929190829003018186803b15801561078d57600080fd5b505afa1580156107a1573d6000803e3d6000fd5b505050506040513d60208110156107b757600080fd5b50516040805163ddca3f4360e01b815290516001600160a01b0388169163ddca3f43916004808301926020929190829003018186803b1580156107f957600080fd5b505afa15801561080d573d6000803e3d6000fd5b505050506040513d602081101561082357600080fd5b505191945092509050600080806001600160a01b03861673b91345b44a81e23848bd0f5b9ae452fd7b48d7e51461085c5785858a610860565b84868a5b92509250925061087283838684610923565b9a9950505050505050505050565b600061088c85846110ee565b925061089884836110ee565b91506108a48383611279565b95945050505050565b6001546001600160a01b031681565b6000546001600160a01b031681565b60006105e573b91345b44a81e23848bd0f5b9ae452fd7b48d7e5858585610923565b6000806108fc868686866109f9565b905069152d02c7e14af68000008111610916576000610919565b60015b9695505050505050565b60008061094e73fd98da817662ff676b38dfd5ed327db8621332fc6109498888886112d1565b611327565b90506000816001600160a01b031663252c09d760006040518263ffffffff1660e01b81526004018082815260200191505060806040518083038186803b15801561099757600080fd5b505afa1580156109ab573d6000803e3d6000fd5b505050506040513d60808110156109c157600080fd5b5051905060006109d48342849003611406565b60020b90506109ed816109e687611702565b8a8a611718565b98975050505050505050565b600080610a05866104b0565b90506000610a12866104b0565b90506000610a1f88610f10565b90506000610a2c88610f10565b90506000610a4d73b91345b44a81e23848bd0f5b9ae452fd7b48d7e5610f10565b90506001600160a01b03851615801590610a6f57506001600160a01b03841615155b15610ab2576000610a80868a6106dd565b90506000610a8e868a6106dd565b90506000610a9c8383611279565b9050610aa88482610be2565b9850505050610bbd565b6001600160a01b03831615801590610ad257506001600160a01b03821615155b15610b06576000610ae3848a610be2565b90506000610af1848a610be2565b9050610afd8282611279565b97505050610bbd565b6001600160a01b03851615801590610b2657506001600160a01b03821615155b15610b5f576000610b37868a6106dd565b90506000610b458383610be2565b90506000610b53858b610be2565b9050610aa88282611279565b6001600160a01b03831615801590610b7f57506001600160a01b03841615155b15610bb8576000610b90848a610be2565b90506000610b9e868a6106dd565b90506000610bac8483610be2565b9050610aa88382611279565b600095505b5050505050949350505050565b73be51eee97e4f427b705744f53c7f7594df49ae7081565b6000808390506000806000836001600160a01b0316630dfe16816040518163ffffffff1660e01b815260040160206040518083038186803b158015610c2657600080fd5b505afa158015610c3a573d6000803e3d6000fd5b505050506040513d6020811015610c5057600080fd5b50516040805163d21220a760e01b815290516001600160a01b0387169163d21220a7916004808301926020929190829003018186803b158015610c9257600080fd5b505afa158015610ca6573d6000803e3d6000fd5b505050506040513d6020811015610cbc57600080fd5b50516040805163ddca3f4360e01b815290516001600160a01b0388169163ddca3f43916004808301926020929190829003018186803b158015610cfe57600080fd5b505afa158015610d12573d6000803e3d6000fd5b505050506040513d6020811015610d2857600080fd5b505191945092509050600080806001600160a01b038616730c2547f3e970c308847161c6b37ae668b100b2681480610d7c57506001600160a01b038616732a7007d59465f567db2a6d730d16b874ca2e5c46145b80610da357506001600160a01b03861673be51eee97e4f427b705744f53c7f7594df49ae70145b61085c5785858a610860565b6000546001600160a01b03163314610df3576040805162461bcd60e51b81526020600482015260026024820152614e4760f01b604482015290519081900360640190fd5b6001600160a01b038116610e34576040805162461bcd60e51b815260206004820152600360248201526249474160e81b604482015290519081900360640190fd5b600054604080516001600160a01b039283168152918316602083015280517f434a2db650703b36c824e745330d6397cdaa9ee2cc891a4938ae853e1c50b68d9281900390910190a1600080546001600160a01b0319166001600160a01b0392909216919091179055565b73b91345b44a81e23848bd0f5b9ae452fd7b48d7e581565b600080610ec5878787876109f9565b90506000610ed8828560ff16606461180a565b90506109ed732a7007d59465f567db2a6d730d16b874ca2e5c46826110ee565b730c2547f3e970c308847161c6b37ae668b100b26881565b6040805160608082018352732a7007d59465f567db2a6d730d16b874ca2e5c468252730c2547f3e970c308847161c6b37ae668b100b26860208084019190915273be51eee97e4f427b705744f53c7f7594df49ae708385015283519182018452610bb882526101f49082015261271092810192909252600091829182918280805b60038160ff1610156110745760005b60038160ff16101561106b57610fd38a878460ff1660038110610fbf57fe5b6020020151878460ff166003811061051057fe5b97506001600160a01b0388161561106357876001600160a01b0316631a6865026040518163ffffffff1660e01b815260040160206040518083038186803b15801561101d57600080fd5b505afa158015611031573d6000803e3d6000fd5b505050506040513d602081101561104757600080fd5b50516001600160801b0316965083871115611063578693508792505b600101610fa0565b50600101610f91565b50979650505050505050565b73fd98da817662ff676b38dfd5ed327db8621332fc81565b6000806110bc732e53716051be4bcce9f546fcfb0ef7632e505dbd610bb8856108cb565b905060006110ca86866110ee565b90506109198282611279565b732a7007d59465f567db2a6d730d16b874ca2e5c4681565b6000806110fa846104b0565b6001546040805163069f487d60e51b81526001600160a01b0380851660048301529151939450600093919092169163d3e90fa09160248083019260e0929190829003018186803b15801561114d57600080fd5b505afa158015611161573d6000803e3d6000fd5b505050506040513d60e081101561117757600080fd5b50604001519050600061118b8683876105c3565b9050610919732e53716051be4bcce9f546fcfb0ef7632e505dbd610bb8836108cb565b732e53716051be4bcce9f546fcfb0ef7632e505dbd81565b69152d02c7e14af680000081565b60408051630b4c774160e11b81526001600160a01b0385811660048301528416602482015262ffffff83166044820152905160009173fd98da817662ff676b38dfd5ed327db8621332fc91631698ee8291606480820192602092909190829003018186803b15801561124557600080fd5b505afa158015611259573d6000803e3d6000fd5b505050506040513d602081101561126f57600080fd5b5051949350505050565b6000828201838110156105e8576040805162461bcd60e51b815260206004820152601b60248201527a536166654d6174683a206164646974696f6e206f766572666c6f7760281b604482015290519081900360640190fd5b6112d9611be0565b826001600160a01b0316846001600160a01b031611156112f7579192915b50604080516060810182526001600160a01b03948516815292909316602083015262ffffff169181019190915290565b600081602001516001600160a01b031682600001516001600160a01b03161061134f57600080fd5b50805160208083015160409384015184516001600160a01b0394851681850152939091168385015262ffffff166060808401919091528351808403820181526080840185528051908301206001600160f81b031960a085015294901b6001600160601b03191660a183015260b58201939093527fe34f199b19b2b4f47f68442619d555527d244f78a3297ea89325f843f87b8b5460d5808301919091528251808303909101815260f5909101909152805191012090565b600063ffffffff8216611445576040805162461bcd60e51b8152602060048201526002602482015261042560f41b604482015290519081900360640190fd5b604080516002808252606082018352600092602083019080368337019050509050828160008151811061147457fe5b602002602001019063ffffffff16908163ffffffff168152505060008160018151811061149d57fe5b63ffffffff90921660209283029190910182015260405163883bdbfd60e01b8152600481018281528351602483015283516000936001600160a01b0389169363883bdbfd938793909283926044019185820191028083838b5b8381101561150e5781810151838201526020016114f6565b505050509050019250505060006040518083038186803b15801561153157600080fd5b505afa158015611545573d6000803e3d6000fd5b505050506040513d6000823e601f3d908101601f19168201604090815281101561156e57600080fd5b8101908080516040519392919084600160201b82111561158d57600080fd5b9083019060208201858111156115a257600080fd5b82518660208202830111600160201b821117156115be57600080fd5b82525081516020918201928201910280838360005b838110156115eb5781810151838201526020016115d3565b5050505090500160405260200180516040519392919084600160201b82111561161357600080fd5b90830190602082018581111561162857600080fd5b82518660208202830111600160201b8211171561164457600080fd5b82525081516020918201928201910280838360005b83811015611671578181015183820152602001611659565b5050505090500160405250505050905060008160008151811061169057fe5b6020026020010151826001815181106116a557fe5b60200260200101510390508463ffffffff168160060b816116c257fe5b05935060008160060b1280156116ec57508463ffffffff168160060b816116e557fe5b0760060b15155b156116f957600019909301925b50505092915050565b806001600160801b03811681146105be57600080fd5b600080611724866118b9565b90506001600160801b036001600160a01b03821611611793576001600160a01b03808216800290848116908616106117735761176e600160c01b876001600160801b03168361180a565b61178b565b61178b81876001600160801b0316600160c01b61180a565b925050611801565b60006117ad6001600160a01b03831680600160401b61180a565b9050836001600160a01b0316856001600160a01b0316106117e5576117e0600160801b876001600160801b03168361180a565b6117fd565b6117fd81876001600160801b0316600160801b61180a565b9250505b50949350505050565b6000808060001985870986860292508281109083900303905080611840576000841161183557600080fd5b5082900490506105e8565b80841161184c57600080fd5b6000848688096000868103871696879004966002600389028118808a02820302808a02820302808a02820302808a02820302808a02820302808a02909103029181900381900460010186841190950394909402919094039290920491909117919091029150509392505050565b60008060008360020b126118d0578260020b6118d8565b8260020b6000035b9050620d89e8811115611916576040805162461bcd60e51b81526020600482015260016024820152601560fa1b604482015290519081900360640190fd5b60006001821661192a57600160801b61193c565b6ffffcb933bd6fad37aa2d162d1a5940015b6001600160881b031690506002821615611966576ffff97272373d413259a46990580e213a0260801c5b6004821615611985576ffff2e50f5f656932ef12357cf3c7fdcc0260801c5b60088216156119a4576fffe5caca7e10e4e61c3624eaa0941cd00260801c5b60108216156119c3576fffcb9843d60f6159c9db58835c9266440260801c5b60208216156119e2576fff973b41fa98c081472e6896dfb254c00260801c5b6040821615611a01576fff2ea16466c96a3843ec78b326b528610260801c5b6080821615611a20576ffe5dee046a99a2a811c461f1969c30530260801c5b610100821615611a40576ffcbe86c7900a88aedcffc83b479aa3a40260801c5b610200821615611a60576ff987a7253ac413176f2b074cf7815e540260801c5b610400821615611a80576ff3392b0822b70005940c7a398e4b70f30260801c5b610800821615611aa0576fe7159475a2c29b7443b29c7fa6e889d90260801c5b611000821615611ac0576fd097f3bdfd2022b8845ad8f792aa58250260801c5b612000821615611ae0576fa9f746462d870fdf8a65dc1f90e061e50260801c5b614000821615611b00576f70d869a156d2a1b890bb3df62baf32f70260801c5b618000821615611b20576f31be135f97d08fd981231505542fcfa60260801c5b62010000821615611b41576f09aa508b5b7a84e1c677de54f3e99bc90260801c5b62020000821615611b61576e5d6af8dedb81196699c329225ee6040260801c5b62040000821615611b80576d2216e584f5fa1ea926041bedfe980260801c5b62080000821615611b9d576b048a170391f7dc42444e8fa20260801c5b60008460020b1315611bb8578060001981611bb457fe5b0490505b600160201b810615611bcb576001611bce565b60005b60ff16602082901c0192505050919050565b60408051606081018252600080825260208201819052918101919091529056fea164736f6c6343000706000a",
  "linkReferences": {},
  "deployedLinkReferences": {}
}