{
  "_format": "hh-sol-artifact-1",
  "contractName": "ULMState",
  "sourceName": "contracts/base/ULMState.sol",
  "abi": [
    {
      "inputs": [],
      "stateMutability": "nonpayable",
      "type": "constructor"
    },
    {
      "anonymous": false,
      "inputs": [
        {
          "indexed": false,
          "internalType": "address",
          "name": "oldGovernance",
          "type": "address"
        },
        {
          "indexed": false,
          "internalType": "address",
          "name": "newGovernance",
          "type": "address"
        }
      ],
      "name": "GovernanceUpdated",
      "type": "event"
    },
    {
      "inputs": [
        {
          "internalType": "address",
          "name": "token0",
          "type": "address"
        },
        {
          "internalType": "address",
          "name": "token1",
          "type": "address"
        },
        {
          "internalType": "uint24",
          "name": "fee",
          "type": "uint24"
        }
      ],
      "name": "getPoolAddress",
      "outputs": [
        {
          "internalType": "address",
          "name": "",
          "type": "address"
        }
      ],
      "stateMutability": "view",
      "type": "function"
    },
    {
      "inputs": [
        {
          "internalType": "address",
          "name": "pool",
          "type": "address"
        }
      ],
      "name": "getPoolDetails",
      "outputs": [
        {
          "internalType": "address",
          "name": "token0",
          "type": "address"
        },
        {
          "internalType": "address",
          "name": "token1",
          "type": "address"
        },
        {
          "internalType": "uint24",
          "name": "fee",
          "type": "uint24"
        },
        {
          "internalType": "uint16",
          "name": "poolCardinality",
          "type": "uint16"
        },
        {
          "internalType": "uint128",
          "name": "liquidity",
          "type": "uint128"
        },
        {
          "internalType": "uint160",
          "name": "sqrtPriceX96",
          "type": "uint160"
        },
        {
          "internalType": "int24",
          "name": "currentTick",
          "type": "int24"
        }
      ],
      "stateMutability": "view",
      "type": "function"
    },
    {
      "inputs": [
        {
          "internalType": "uint256",
          "name": "tokenId",
          "type": "uint256"
        },
        {
          "internalType": "address",
          "name": "liquidityManagerAddress",
          "type": "address"
        }
      ],
      "name": "getPositionDetails",
      "outputs": [
        {
          "internalType": "address",
          "name": "pool",
          "type": "address"
        },
        {
          "internalType": "address",
          "name": "token0",
          "type": "address"
        },
        {
          "internalType": "address",
          "name": "token1",
          "type": "address"
        },
        {
          "internalType": "int24",
          "name": "currentTick",
          "type": "int24"
        },
        {
          "internalType": "uint24",
          "name": "fee",
          "type": "uint24"
        },
        {
          "internalType": "uint256",
          "name": "liquidity",
          "type": "uint256"
        },
        {
          "internalType": "uint256",
          "name": "fee0",
          "type": "uint256"
        },
        {
          "internalType": "uint256",
          "name": "fee1",
          "type": "uint256"
        },
        {
          "internalType": "uint256",
          "name": "amount0",
          "type": "uint256"
        },
        {
          "internalType": "uint256",
          "name": "amount1",
          "type": "uint256"
        },
        {
          "internalType": "uint256",
          "name": "totalLiquidity",
          "type": "uint256"
        }
      ],
      "stateMutability": "nonpayable",
      "type": "function"
    },
    {
      "inputs": [
        {
          "internalType": "address",
          "name": "liquidityManager",
          "type": "address"
        },
        {
          "internalType": "address",
          "name": "pool",
          "type": "address"
        },
        {
          "internalType": "uint256",
          "name": "userLiquidity",
          "type": "uint256"
        },
        {
          "internalType": "uint256",
          "name": "feeGrowth0",
          "type": "uint256"
        },
        {
          "internalType": "uint256",
          "name": "feeGrowth1",
          "type": "uint256"
        }
      ],
      "name": "getTokensOwedAmount",
      "outputs": [
        {
          "internalType": "uint256",
          "name": "tokensOwed0",
          "type": "uint256"
        },
        {
          "internalType": "uint256",
          "name": "tokensOwed1",
          "type": "uint256"
        },
        {
          "internalType": "uint256",
          "name": "feeGrowthGlobal0",
          "type": "uint256"
        },
        {
          "internalType": "uint256",
          "name": "feeGrowthGlobal1",
          "type": "uint256"
        }
      ],
      "stateMutability": "view",
      "type": "function"
    },
    {
      "inputs": [
        {
          "internalType": "address",
          "name": "pool",
          "type": "address"
        },
        {
          "internalType": "address",
          "name": "liquidityManager",
          "type": "address"
        }
      ],
      "name": "getTotalAmounts",
      "outputs": [
        {
          "internalType": "uint256",
          "name": "fee0",
          "type": "uint256"
        },
        {
          "internalType": "uint256",
          "name": "fee1",
          "type": "uint256"
        },
        {
          "internalType": "uint256",
          "name": "amount0",
          "type": "uint256"
        },
        {
          "internalType": "uint256",
          "name": "amount1",
          "type": "uint256"
        },
        {
          "internalType": "uint256",
          "name": "totalLiquidity",
          "type": "uint256"
        }
      ],
      "stateMutability": "view",
      "type": "function"
    },
    {
      "inputs": [
        {
          "internalType": "uint256",
          "name": "tokensOwed0",
          "type": "uint256"
        },
        {
          "internalType": "uint256",
          "name": "tokensOwed1",
          "type": "uint256"
        }
      ],
      "name": "getUserAndIndexShares",
      "outputs": [
        {
          "internalType": "uint256",
          "name": "indexAmount0",
          "type": "uint256"
        },
        {
          "internalType": "uint256",
          "name": "indexAmount1",
          "type": "uint256"
        },
        {
          "internalType": "uint256",
          "name": "userAmount0",
          "type": "uint256"
        },
        {
          "internalType": "uint256",
          "name": "userAmount1",
          "type": "uint256"
        }
      ],
      "stateMutability": "view",
      "type": "function"
    },
    {
      "inputs": [
        {
          "internalType": "uint8",
          "name": "newPercentage",
          "type": "uint8"
        }
      ],
      "name": "setFeesPercentageIndexFund",
      "outputs": [],
      "stateMutability": "nonpayable",
      "type": "function"
    },
    {
      "inputs": [
        {
          "internalType": "address",
          "name": "_governance",
          "type": "address"
        }
      ],
      "name": "setGovernance",
      "outputs": [],
      "stateMutability": "nonpayable",
      "type": "function"
    },
    {
      "inputs": [
        {
          "internalType": "address",
          "name": "pool",
          "type": "address"
        },
        {
          "internalType": "address",
          "name": "liquidityManagerAddress",
          "type": "address"
        }
      ],
      "name": "shouldReadjust",
      "outputs": [
        {
          "internalType": "bool",
          "name": "readjust",
          "type": "bool"
        }
      ],
      "stateMutability": "view",
      "type": "function"
    }
  ],
  "bytecode": "0x608060405234801561001057600080fd5b50600080546001600160a01b031916331790556002600155611a7c806100376000396000f3fe608060405234801561001057600080fd5b50600436106100835760003560e01c80630f765aad14610088578063556ceeff146100b457806356d7b7f5146100c9578063696d6283146100dc578063ab033ea9146100fc578063b635101e1461010f578063bb5f30ce14610133578063d3e90fa01461015d578063fd78861714610183575b600080fd5b61009b6100963660046115a7565b6101a3565b6040516100ab94939291906119f9565b60405180910390f35b6100c76100c2366004611861565b61026e565b005b61009b6100d7366004611801565b6102dc565b6100ef6100ea36600461155d565b610323565b6040516100ab919061187d565b6100c761010a3660046114ed565b6103bb565b61012261011d366004611525565b610474565b6040516100ab959493929190611a14565b610146610141366004611781565b61062e565b6040516100ab9b9a999897969594939291906118ab565b61017061016b3660046114ed565b610795565b6040516100ab979695949392919061193a565b610196610191366004611525565b6109f9565b6040516100ab919061198f565b600080600080886001600160a01b0316636fd0ea92896040518263ffffffff1660e01b81526004016101d5919061187d565b6101606040518083038186803b1580156101ee57600080fd5b505afa158015610202573d6000803e3d6000fd5b505050506040513d601f19601f820116820180604052508101906102269190611611565b50909a509850610251975061024696508995508d945050610b5092505050565b88600160801b610b66565b93506102606102468287610b50565b925095509550955095915050565b6000546001600160a01b031633146102a15760405162461bcd60e51b8152600401610298906119d4565b60405180910390fd5b60008160ff161180156102b8575060648160ff1611155b6102d45760405162461bcd60e51b8152600401610298906119b7565b60ff16600155565b6000806000806102f0866001546064610b66565b9350610300856001546064610b66565b925061030c8685610b50565b91506103188584610b50565b905092959194509250565b604051630b4c774160e11b8152600090731f98431c8ad98523631ae4a59f267346ea31f98490631698ee829061036190879087908790600401611912565b60206040518083038186803b15801561037957600080fd5b505afa15801561038d573d6000803e3d6000fd5b505050506040513d601f19601f820116820180604052508101906103b19190611509565b90505b9392505050565b6000546001600160a01b031633146103e55760405162461bcd60e51b8152600401610298906119d4565b6001600160a01b03811661040b5760405162461bcd60e51b81526004016102989061199a565b6000546040517f434a2db650703b36c824e745330d6397cdaa9ee2cc891a4938ae853e1c50b68d9161044a916001600160a01b03909116908490611891565b60405180910390a1600080546001600160a01b0319166001600160a01b0392909216919091179055565b6000806000806000610484611430565b6040516337e8754960e11b81526001600160a01b03881690636fd0ea92906104b0908b9060040161187d565b6101606040518083038186803b1580156104c957600080fd5b505afa1580156104dd573d6000803e3d6000fd5b505050506040513d601f19601f820116820180604052508101906105019190611611565b60a08c019390935250506080890191909152600292830b830b606089015292820b820b60408801525092830b830b6020860181905293830b90920b8085529194508a92610552928b92509084610c15565b61014086015261012085015261010084015260e08301526040820151606083015161057f918a9184610c15565b6101c08601526101a0850152610180840152610160830181905260e08301516105a791610c65565b94506105c6826101800151836101000151610c6590919063ffffffff16565b93506105f36105e8836101a00151846101200151610c6590919063ffffffff16565b608084015190610c65565b9650610620610615836101c00151846101400151610c6590919063ffffffff16565b60a084015190610c65565b955050509295509295909350565b6000806000806000806000806000806000808c9050806001600160a01b03166399fbab888f6040518263ffffffff1660e01b815260040161066f91906119f0565b60e06040518083038186803b15801561068757600080fd5b505afa15801561069b573d6000803e3d6000fd5b505050506040513d601f19601f820116820180604052508101906106bf91906117a5565b9091929394955090919250909150905050809850819d505050806001600160a01b031663602c231d8d6040518263ffffffff1660e01b8152600401610704919061187d565b60a060405180830381600087803b15801561071e57600080fd5b505af1158015610732573d6000803e3d6000fd5b505050506040513d601f19601f820116820180604052508101906107569190611822565b93995091975095509350915061076b8c610795565b909192509091509050809c50819b50829d50839e5050505050509295989b509295989b9093969950565b600080600080600080600080889050806001600160a01b0316630dfe16816040518163ffffffff1660e01b815260040160206040518083038186803b1580156107dd57600080fd5b505afa1580156107f1573d6000803e3d6000fd5b505050506040513d601f19601f820116820180604052508101906108159190611509565b9750806001600160a01b031663d21220a76040518163ffffffff1660e01b815260040160206040518083038186803b15801561085057600080fd5b505afa158015610864573d6000803e3d6000fd5b505050506040513d601f19601f820116820180604052508101906108889190611509565b9650806001600160a01b031663ddca3f436040518163ffffffff1660e01b815260040160206040518083038186803b1580156108c357600080fd5b505afa1580156108d7573d6000803e3d6000fd5b505050506040513d601f19601f820116820180604052508101906108fb9190611765565b9550806001600160a01b0316631a6865026040518163ffffffff1660e01b815260040160206040518083038186803b15801561093657600080fd5b505afa15801561094a573d6000803e3d6000fd5b505050506040513d601f19601f8201168201806040525081019061096e91906116b9565b9350806001600160a01b0316633850c7bd6040518163ffffffff1660e01b815260040160e06040518083038186803b1580156109a957600080fd5b505afa1580156109bd573d6000803e3d6000fd5b505050506040513d601f19601f820116820180604052508101906109e191906116d3565b509c9e9b9d50999b5099969850919650949350505050565b6000806000836001600160a01b0316636fd0ea92866040518263ffffffff1660e01b8152600401610a2a919061187d565b6101606040518083038186803b158015610a4357600080fd5b505afa158015610a57573d6000803e3d6000fd5b505050506040513d601f19601f82011682018060405250810190610a7b9190611611565b505050505050505050915091506000856001600160a01b031663d0c93a7c6040518163ffffffff1660e01b815260040160206040518083038186803b158015610ac357600080fd5b505afa158015610ad7573d6000803e3d6000fd5b505050506040513d601f19601f82011682018060405250810190610afb91906115f7565b90506000610b0887610795565b9650505050505050600082905080850160020b8260020b1280610b32575080840360020b8260020b135b15610b405760019550610b45565b600095505b505050505092915050565b80820382811115610b6057600080fd5b92915050565b6000808060001985870986860292508281109083900303905080610b9c5760008411610b9157600080fd5b5082900490506103b4565b808411610ba857600080fd5b6000848688096000868103871696879004966002600389028118808a02820302808a02820302808a02820302808a02820302808a02820302808a02909103029181900381900460010186841190950394909402919094039290920491909117919091029150509392505050565b6000806000806000806000610c2c8b8b8b8b610c75565b9450945050509250610c438a8a856000808d610d26565b909d909c506001600160801b039384169b509190921698509650505050505050565b80820182811015610b6057600080fd5b600080600080600080610c898a8a8a610df1565b9050866001600160a01b031663514ea4bf826040518263ffffffff1660e01b81526004018082815260200191505060a06040518083038186803b158015610ccf57600080fd5b505afa158015610ce3573d6000803e3d6000fd5b505050506040513d60a0811015610cf957600080fd5b508051602082015160408301516060840151608090940151929e919d509b50919950975095505050505050565b600080600080846001600160a01b0316633850c7bd6040518163ffffffff1660e01b815260040160e06040518083038186803b158015610d6557600080fd5b505afa158015610d79573d6000803e3d6000fd5b505050506040513d60e0811015610d8f57600080fd5b505190506000610d9e8b610e42565b90506000610dab8b610e42565b90506001600160801b038a1615610dd257610dc88383838d611169565b9095509350610de2565b610ddf8383838c8c611205565b95505b50505096509650969350505050565b6040805160609490941b6001600160601b031916602080860191909152600293840b60e890811b60348701529290930b90911b60378401528051808403601a018152603a9093019052815191012090565b60008060008360020b12610e59578260020b610e61565b8260020b6000035b9050620d89e8811115610e9f576040805162461bcd60e51b81526020600482015260016024820152601560fa1b604482015290519081900360640190fd5b600060018216610eb357600160801b610ec5565b6ffffcb933bd6fad37aa2d162d1a5940015b6001600160881b031690506002821615610eef576ffff97272373d413259a46990580e213a0260801c5b6004821615610f0e576ffff2e50f5f656932ef12357cf3c7fdcc0260801c5b6008821615610f2d576fffe5caca7e10e4e61c3624eaa0941cd00260801c5b6010821615610f4c576fffcb9843d60f6159c9db58835c9266440260801c5b6020821615610f6b576fff973b41fa98c081472e6896dfb254c00260801c5b6040821615610f8a576fff2ea16466c96a3843ec78b326b528610260801c5b6080821615610fa9576ffe5dee046a99a2a811c461f1969c30530260801c5b610100821615610fc9576ffcbe86c7900a88aedcffc83b479aa3a40260801c5b610200821615610fe9576ff987a7253ac413176f2b074cf7815e540260801c5b610400821615611009576ff3392b0822b70005940c7a398e4b70f30260801c5b610800821615611029576fe7159475a2c29b7443b29c7fa6e889d90260801c5b611000821615611049576fd097f3bdfd2022b8845ad8f792aa58250260801c5b612000821615611069576fa9f746462d870fdf8a65dc1f90e061e50260801c5b614000821615611089576f70d869a156d2a1b890bb3df62baf32f70260801c5b6180008216156110a9576f31be135f97d08fd981231505542fcfa60260801c5b620100008216156110ca576f09aa508b5b7a84e1c677de54f3e99bc90260801c5b620200008216156110ea576e5d6af8dedb81196699c329225ee6040260801c5b62040000821615611109576d2216e584f5fa1ea926041bedfe980260801c5b62080000821615611126576b048a170391f7dc42444e8fa20260801c5b60008460020b131561114157806000198161113d57fe5b0490505b600160201b810615611154576001611157565b60005b60ff16602082901c0192505050919050565b600080836001600160a01b0316856001600160a01b0316111561118a579293925b846001600160a01b0316866001600160a01b0316116111b5576111ae8585856112c9565b91506111fc565b836001600160a01b0316866001600160a01b031610156111ee576111da8685856112c9565b91506111e7858785611332565b90506111fc565b6111f9858585611332565b90505b94509492505050565b6000836001600160a01b0316856001600160a01b03161115611225579293925b846001600160a01b0316866001600160a01b03161161125057611249858585611375565b90506112c0565b836001600160a01b0316866001600160a01b031610156112b2576000611277878686611375565b905060006112868789866113d8565b9050806001600160801b0316826001600160801b0316106112a757806112a9565b815b925050506112c0565b6112bd8585846113d8565b90505b95945050505050565b6000826001600160a01b0316846001600160a01b031611156112e9579192915b836001600160a01b0316611322606060ff16846001600160801b0316901b8686036001600160a01b0316866001600160a01b0316610b66565b8161132957fe5b04949350505050565b6000826001600160a01b0316846001600160a01b03161115611352579192915b6103b1826001600160801b03168585036001600160a01b0316600160601b610b66565b6000826001600160a01b0316846001600160a01b03161115611395579192915b60006113b8856001600160a01b0316856001600160a01b0316600160601b610b66565b90506112c06113d384838888036001600160a01b0316610b66565b611415565b6000826001600160a01b0316846001600160a01b031611156113f8579192915b6103b16113d383600160601b8787036001600160a01b0316610b66565b806001600160801b038116811461142b57600080fd5b919050565b604051806101e00160405280600060020b8152602001600060020b8152602001600060020b8152602001600060020b815260200160008152602001600081526020016000815260200160008152602001600081526020016000815260200160008152602001600081526020016000815260200160008152602001600081525090565b8051600281900b811461142b57600080fd5b80516001600160801b038116811461142b57600080fd5b805161ffff8116811461142b57600080fd5b6000602082840312156114fe578081fd5b81356103b481611a37565b60006020828403121561151a578081fd5b81516103b481611a37565b60008060408385031215611537578081fd5b823561154281611a37565b9150602083013561155281611a37565b809150509250929050565b600080600060608486031215611571578081fd5b833561157c81611a37565b9250602084013561158c81611a37565b9150604084013561159c81611a4f565b809150509250925092565b600080600080600060a086880312156115be578081fd5b85356115c981611a37565b945060208601356115d981611a37565b94979496505050506040830135926060810135926080909101359150565b600060208284031215611608578081fd5b6103b4826114b2565b60008060008060008060008060008060006101608c8e031215611632578586fd5b61163b8c6114b2565b9a5061164960208d016114b2565b995061165760408d016114c4565b985061166560608d016114b2565b975061167360808d016114b2565b965061168160a08d016114c4565b955060c08c0151945060e08c015193506101008c015192506101208c015191506101408c015190509295989b509295989b9093969950565b6000602082840312156116ca578081fd5b6103b4826114c4565b600080600080600080600060e0888a0312156116ed578283fd5b87516116f881611a37565b9650611706602089016114b2565b9550611714604089016114db565b9450611722606089016114db565b9350611730608089016114db565b925060a088015161174081611a60565b60c08901519092508015158114611755578182fd5b8091505092959891949750929550565b600060208284031215611776578081fd5b81516103b481611a4f565b60008060408385031215611793578182fd5b82359150602083013561155281611a37565b600080600080600080600060e0888a0312156117bf578081fd5b8751965060208801516117d181611a37565b604089015160608a015160808b015160a08c015160c0909c01519a9d939c50919a90999198509650945092505050565b60008060408385031215611813578182fd5b50508035926020909101359150565b600080600080600060a08688031215611839578283fd5b5050835160208501516040860151606087015160809097015192989197509594509092509050565b600060208284031215611872578081fd5b81356103b481611a60565b6001600160a01b0391909116815260200190565b6001600160a01b0392831681529116602082015260400190565b6001600160a01b039b8c168152998b1660208b015297909916604089015260029590950b606088015262ffffff93909316608087015260a086019190915260c085015260e08401526101008301526101208201929092526101408101919091526101600190565b6001600160a01b03938416815291909216602082015262ffffff909116604082015260600190565b6001600160a01b039788168152958716602087015262ffffff94909416604086015261ffff9290921660608501526001600160801b0316608084015290921660a082015260029190910b60c082015260e00190565b901515815260200190565b60208082526003908201526249474160e81b604082015260600190565b60208082526003908201526249504160e81b604082015260600190565b6020808252600290820152614e4760f01b604082015260600190565b90815260200190565b93845260208401929092526040830152606082015260800190565b948552602085019390935260408401919091526060830152608082015260a00190565b6001600160a01b0381168114611a4c57600080fd5b50565b62ffffff81168114611a4c57600080fd5b60ff81168114611a4c57600080fdfea164736f6c6343000706000a",
  "linkReferences": {},
  "deployedLinkReferences": {}
}