{
  "_format": "hh-sol-artifact-1",
  "contractName": "UniStrategy",
  "sourceName": "contracts/UniStrategy.sol",
  "abi": [
    {
      "inputs": [],
      "stateMutability": "nonpayable",
      "type": "constructor"
    },
    {
      "anonymous": false,
      "inputs": [
        {
          "indexed": false,
          "internalType": "int24",
          "name": "oldMultiplier",
          "type": "int24"
        },
        {
          "indexed": false,
          "internalType": "int24",
          "name": "newMultiplier",
          "type": "int24"
        }
      ],
      "name": "BaseMultiplierUpdated",
      "type": "event"
    },
    {
      "anonymous": false,
      "inputs": [
        {
          "indexed": false,
          "internalType": "int24",
          "name": "oldDeviation",
          "type": "int24"
        },
        {
          "indexed": false,
          "internalType": "int24",
          "name": "newDeviation",
          "type": "int24"
        }
      ],
      "name": "MaxTwapDeviationUpdated",
      "type": "event"
    },
    {
      "anonymous": false,
      "inputs": [
        {
          "indexed": false,
          "internalType": "uint24",
          "name": "oldThreshold",
          "type": "uint24"
        },
        {
          "indexed": false,
          "internalType": "uint24",
          "name": "newThreshold",
          "type": "uint24"
        }
      ],
      "name": "PriceThresholdUpdated",
      "type": "event"
    },
    {
      "anonymous": false,
      "inputs": [
        {
          "indexed": false,
          "internalType": "int24",
          "name": "oldMultiplier",
          "type": "int24"
        },
        {
          "indexed": false,
          "internalType": "int24",
          "name": "newMultiplier",
          "type": "int24"
        }
      ],
      "name": "RangeMultiplierUpdated",
      "type": "event"
    },
    {
      "anonymous": false,
      "inputs": [
        {
          "components": [
            {
              "internalType": "int24",
              "name": "baseThreshold",
              "type": "int24"
            },
            {
              "internalType": "int24",
              "name": "rangeMultiplier",
              "type": "int24"
            },
            {
              "internalType": "int24",
              "name": "maxTwapDeviation",
              "type": "int24"
            },
            {
              "internalType": "uint32",
              "name": "twapDuration",
              "type": "uint32"
            }
          ],
          "indexed": false,
          "internalType": "struct IUniStrategy.PoolStrategy",
          "name": "oldStrategy",
          "type": "tuple"
        },
        {
          "components": [
            {
              "internalType": "int24",
              "name": "baseThreshold",
              "type": "int24"
            },
            {
              "internalType": "int24",
              "name": "rangeMultiplier",
              "type": "int24"
            },
            {
              "internalType": "int24",
              "name": "maxTwapDeviation",
              "type": "int24"
            },
            {
              "internalType": "uint32",
              "name": "twapDuration",
              "type": "uint32"
            }
          ],
          "indexed": false,
          "internalType": "struct IUniStrategy.PoolStrategy",
          "name": "newStrategy",
          "type": "tuple"
        }
      ],
      "name": "StrategyUpdated",
      "type": "event"
    },
    {
      "anonymous": false,
      "inputs": [
        {
          "indexed": false,
          "internalType": "uint8",
          "name": "oldPercentage",
          "type": "uint8"
        },
        {
          "indexed": false,
          "internalType": "uint8",
          "name": "newPercentage",
          "type": "uint8"
        }
      ],
      "name": "SwapPercentageUpdated",
      "type": "event"
    },
    {
      "anonymous": false,
      "inputs": [
        {
          "indexed": false,
          "internalType": "uint32",
          "name": "oldDuration",
          "type": "uint32"
        },
        {
          "indexed": false,
          "internalType": "uint32",
          "name": "newDuration",
          "type": "uint32"
        }
      ],
      "name": "TwapDurationUpdated",
      "type": "event"
    },
    {
      "inputs": [],
      "name": "baseMultiplier",
      "outputs": [
        {
          "internalType": "int24",
          "name": "",
          "type": "int24"
        }
      ],
      "stateMutability": "view",
      "type": "function"
    },
    {
      "inputs": [
        {
          "components": [
            {
              "internalType": "int24",
              "name": "baseThreshold",
              "type": "int24"
            },
            {
              "internalType": "int24",
              "name": "rangeMultiplier",
              "type": "int24"
            },
            {
              "internalType": "int24",
              "name": "maxTwapDeviation",
              "type": "int24"
            },
            {
              "internalType": "uint32",
              "name": "twapDuration",
              "type": "uint32"
            }
          ],
          "internalType": "struct IUniStrategy.PoolStrategy",
          "name": "params",
          "type": "tuple"
        },
        {
          "internalType": "address",
          "name": "_pool",
          "type": "address"
        }
      ],
      "name": "changeStrategy",
      "outputs": [],
      "stateMutability": "nonpayable",
      "type": "function"
    },
    {
      "inputs": [
        {
          "internalType": "address",
          "name": "_pool",
          "type": "address"
        }
      ],
      "name": "getTicks",
      "outputs": [
        {
          "internalType": "int24",
          "name": "baseLower",
          "type": "int24"
        },
        {
          "internalType": "int24",
          "name": "baseUpper",
          "type": "int24"
        },
        {
          "internalType": "int24",
          "name": "bidLower",
          "type": "int24"
        },
        {
          "internalType": "int24",
          "name": "bidUpper",
          "type": "int24"
        },
        {
          "internalType": "int24",
          "name": "askLower",
          "type": "int24"
        },
        {
          "internalType": "int24",
          "name": "askUpper",
          "type": "int24"
        }
      ],
      "stateMutability": "nonpayable",
      "type": "function"
    },
    {
      "inputs": [
        {
          "internalType": "address",
          "name": "_pool",
          "type": "address"
        }
      ],
      "name": "getTwap",
      "outputs": [
        {
          "internalType": "int24",
          "name": "",
          "type": "int24"
        }
      ],
      "stateMutability": "view",
      "type": "function"
    },
    {
      "inputs": [],
      "name": "governance",
      "outputs": [
        {
          "internalType": "address",
          "name": "",
          "type": "address"
        }
      ],
      "stateMutability": "view",
      "type": "function"
    },
    {
      "inputs": [],
      "name": "pricethreshold",
      "outputs": [
        {
          "internalType": "uint24",
          "name": "",
          "type": "uint24"
        }
      ],
      "stateMutability": "view",
      "type": "function"
    },
    {
      "inputs": [],
      "name": "rangeMultiplier",
      "outputs": [
        {
          "internalType": "int24",
          "name": "",
          "type": "int24"
        }
      ],
      "stateMutability": "view",
      "type": "function"
    },
    {
      "inputs": [
        {
          "internalType": "int24",
          "name": "_baseMultiplier",
          "type": "int24"
        }
      ],
      "name": "setBaseMutiplier",
      "outputs": [],
      "stateMutability": "nonpayable",
      "type": "function"
    },
    {
      "inputs": [
        {
          "internalType": "int24",
          "name": "_twapDeviation",
          "type": "int24"
        }
      ],
      "name": "setMaxTwapDeviation",
      "outputs": [],
      "stateMutability": "nonpayable",
      "type": "function"
    },
    {
      "inputs": [
        {
          "internalType": "uint24",
          "name": "_priceThreshold",
          "type": "uint24"
        }
      ],
      "name": "setPricethreshold",
      "outputs": [],
      "stateMutability": "nonpayable",
      "type": "function"
    },
    {
      "inputs": [
        {
          "internalType": "int24",
          "name": "_rangeMultiplier",
          "type": "int24"
        }
      ],
      "name": "setRangeMultiplier",
      "outputs": [],
      "stateMutability": "nonpayable",
      "type": "function"
    },
    {
      "inputs": [
        {
          "internalType": "uint8",
          "name": "_swapPercentage",
          "type": "uint8"
        }
      ],
      "name": "setSwapPercentage",
      "outputs": [],
      "stateMutability": "nonpayable",
      "type": "function"
    },
    {
      "inputs": [
        {
          "internalType": "uint32",
          "name": "_twapDuration",
          "type": "uint32"
        }
      ],
      "name": "setTwapDuration",
      "outputs": [],
      "stateMutability": "nonpayable",
      "type": "function"
    },
    {
      "inputs": [],
      "name": "swapPercentage",
      "outputs": [
        {
          "internalType": "uint8",
          "name": "",
          "type": "uint8"
        }
      ],
      "stateMutability": "view",
      "type": "function"
    },
    {
      "inputs": [],
      "name": "unipilot",
      "outputs": [
        {
          "internalType": "address",
          "name": "",
          "type": "address"
        }
      ],
      "stateMutability": "view",
      "type": "function"
    },
    {
      "inputs": [
        {
          "internalType": "address",
          "name": "_unipilot",
          "type": "address"
        }
      ],
      "name": "updateUnipilotAddress",
      "outputs": [],
      "stateMutability": "nonpayable",
      "type": "function"
    }
  ],
  "bytecode": "0x608060405234801561001057600080fd5b5060008054336001600160a01b031990911617815560018054600280546001600160e81b03909216604b60ec1b1762ffffff60a01b1916600f60a21b1762ffffff60b81b1916600f60ba1b17909255670100000000000000610e1063ffffffff199092169190911762ffffff60201b1916660186a0000000001760ff60381b1916179055611f569081906100a490396000f3fe608060405234801561001057600080fd5b50600436106100d05760003560e01c80632b56a9c3146100d5578063378af1f8146100ea5780633b0ac102146100fd5780633cbff3fe146101105780633d47d227146101235780634b52a2331461014c57806357829029146101615780635aa6e67514610169578063802036f51461017e5780639456c131146101a3578063accae095146101b8578063bdaf51dd146101cb578063c433c80a146101de578063ce7a6718146101f1578063d60a0955146101f9578063f0cc929514610201575b600080fd5b6100e86100e33660046117f9565b610214565b005b6100e86100f83660046118fd565b61028f565b6100e861010b366004611ac4565b61034b565b6100e861011e3660046118fd565b610424565b6101366101313660046117f9565b6104bd565b6040516101439190611b3e565b60405180910390f35b610154610646565b6040516101439190611eb1565b610136610656565b610171610666565b6040516101439190611ae0565b61019161018c3660046117f9565b610675565b60405161014396959493929190611b60565b6101ab610a2f565b6040516101439190611e74565b6100e86101c6366004611935565b610a41565b6100e86101d9366004611a87565b610c1e565b6100e86101ec366004611aaa565b610cee565b610171610d78565b610136610d87565b6100e861020f3660046118fd565b610d97565b6000546001600160a01b031633146102475760405162461bcd60e51b815260040161023e90611dcd565b60405180910390fd5b6001600160a01b03811661026d5760405162461bcd60e51b815260040161023e90611c79565b600180546001600160a01b0319166001600160a01b0392909216919091179055565b6000546001600160a01b031633146102b95760405162461bcd60e51b815260040161023e90611dcd565b60008160020b136102dc5760405162461bcd60e51b815260040161023e90611bb1565b6001546040517fa837e2fe353f6b3e5f9fa8427342375427e132fea45719ed35278e8916f46fbc9161031b91600160b81b90910460020b908490611b4c565b60405180910390a16001805460029290920b62ffffff16600160b81b0262ffffff60b81b19909216919091179055565b6000546001600160a01b031633146103755760405162461bcd60e51b815260040161023e90611dcd565b60008160ff16116103985760405162461bcd60e51b815260040161023e90611c95565b60648160ff1611156103bc5760405162461bcd60e51b815260040161023e90611d0e565b7ffa32271d561eda108702a5e83e4887f91ceac7234bc509d55c35327627b1a8d8600260079054906101000a900460ff16826040516103fc929190611ebf565b60405180910390a16002805460ff909216600160381b0260ff60381b19909216919091179055565b6000546001600160a01b0316331461044e5760405162461bcd60e51b815260040161023e90611dcd565b6001546040517fb32bf5279c25f60e729f297567e5882813fe72a29dec91009962465b6a98a15f9161048d91600160e81b90910460020b908490611b4c565b60405180910390a16001805460029290920b62ffffff16600160e81b026001600160e81b03909216919091179055565b60408051600280825260608201835260009283929190602083019080368337019050506001600160a01b0384166000908152600360205260408120548251929350600160481b900463ffffffff169183919061051557fe5b602002602001019063ffffffff16908163ffffffff168152505060008160018151811061053e57fe5b63ffffffff9092166020928302919091019091015260405163883bdbfd60e01b81526000906001600160a01b0385169063883bdbfd90610582908590600401611af4565b60006040518083038186803b15801561059a57600080fd5b505afa1580156105ae573d6000803e3d6000fd5b505050506040513d6000823e601f3d908101601f191682016040526105d6919081019061181c565b506001600160a01b03851660009081526003602081905260408220548351939450600160481b900463ffffffff16900b60060b9183919061061357fe5b60200260200101518260018151811061062857fe5b60200260200101510360060b8161063b57fe5b05925050505b919050565b600254600160381b900460ff1681565b600154600160a01b900460020b81565b6000546001600160a01b031681565b600154604051631439a54760e31b8152600091829182918291829182916001600160a01b039091169063a1cd2a38906106b2903390600401611ae0565b60206040518083038186803b1580156106ca57600080fd5b505afa1580156106de573d6000803e3d6000fd5b505050506040513d601f19601f8201168201806040525081019061070291906118e3565b61071e5760405162461bcd60e51b815260040161023e90611b94565b60008061072a89610e53565b6001600160a01b038b166000908152600360205260409020549193509150600290810b900b61080457600180546001600160a01b038b1660009081526003602052604090208054600160b81b909204600290810b8502810b62ffffff90811662ffffff19909416939093178083558454600160a01b9004820b820b841663010000000265ffffff00000019909116178083559354600160e81b9004810b810b909216600160301b0262ffffff60301b19909316929092178083559054600160481b63ffffffff9091160263ffffffff60481b199091161790555b6001600160a01b038916600090815260036020526040812080546001805462ffffff60d01b1916600160d01b62ffffff6301000000909404600290810b8802810b94909416810291909117918290559254929004810b810b91810b900b1361087857600154600160d01b900460020b610895565b6001600160a01b038a1660009081526003602052604090205460020b5b90508181620d89e719010160020b8360020b136108c45760405162461bcd60e51b815260040161023e90611c5d565b8181620d89e719600003030360020b8360020b126108f45760405162461bcd60e51b815260040161023e90611d6d565b60006108ff8b610f50565b905060008160020b8560020b136109185784820361091c565b8185035b6001600160a01b038d16600090815260036020526040902054909150600160301b9004600290810b810b9082900b13156109685760405162461bcd60e51b815260040161023e90611d50565b60006109748686611072565b905060008582019050600360008f6001600160a01b03166001600160a01b0316815260200190815260200160002060000160009054906101000a900460020b82039c50600360008f6001600160a01b03166001600160a01b0316815260200190815260200160002060000160009054906101000a900460020b82019b506001601a9054906101000a900460020b82039a508199508098506001601a9054906101000a900460020b810197505050505050505091939550919395565b600254600160201b900462ffffff1681565b6000546001600160a01b03163314610a6b5760405162461bcd60e51b815260040161023e90611dcd565b6001600160a01b03811660008181526003602090815260409182902082516080810184529054600281810b810b810b835263010000008204810b810b810b83850152600160301b8204810b810b900b82850152600160481b900463ffffffff166060820152855183516334324e9f60e21b815293519194610b49949193909263d0c93a7c926004808201939291829003018186803b158015610b0c57600080fd5b505afa158015610b20573d6000803e3d6000fd5b505050506040513d601f19601f82011682018060405250810190610b449190611919565b6110be565b82516001600160a01b03831660009081526003602090815260409182902080549187015183880151606089015163ffffffff16600160481b0263ffffffff60481b19600292830b62ffffff908116600160301b0262ffffff60301b1995850b821663010000000265ffffff000000199a90950b90911662ffffff19909716969096179790971691909117919091169290921793909316178255517f2a3ada81dfc6e2eed8620914c40b078efb833425f676862f38c30dee9db40ad291610c1191849190611e00565b60405180910390a1505050565b6000546001600160a01b03163314610c485760405162461bcd60e51b815260040161023e90611dcd565b620f42408162ffffff16108015610c64575060008162ffffff16115b610c805760405162461bcd60e51b815260040161023e90611be6565b7fd8ef96e6c65855626cbf67d0d67f5521361a909ed60cb0261c5ce29b3f7c07d1600260049054906101000a900462ffffff1682604051610cc2929190611e84565b60405180910390a16002805462ffffff909216600160201b0262ffffff60201b19909216919091179055565b6000546001600160a01b03163314610d185760405162461bcd60e51b815260040161023e90611dcd565b6002546040517f1c373b0a9b89049c835cfc0851faad1f23dbb7e5bd46cf58eb88da4dd760378b91610d549163ffffffff909116908490611e9a565b60405180910390a16002805463ffffffff191663ffffffff92909216919091179055565b6001546001600160a01b031681565b600154600160b81b900460020b81565b6000546001600160a01b03163314610dc15760405162461bcd60e51b815260040161023e90611dcd565b60008160020b13610de45760405162461bcd60e51b815260040161023e90611bb1565b6001546040517f56bb62d4cba7906c56c6024c27acdc59a41b247ddaec35c250c6a384ccf7df1091610e2391600160a01b90910460020b908490611b4c565b60405180910390a16001805460029290920b62ffffff16600160a01b0262ffffff60a01b19909216919091179055565b600080826001600160a01b0316633850c7bd6040518163ffffffff1660e01b815260040160e06040518083038186803b158015610e8f57600080fd5b505afa158015610ea3573d6000803e3d6000fd5b505050506040513d601f19601f82011682018060405250810190610ec791906119fb565b5050604080516334324e9f60e21b815290519497506001600160a01b038916955063d0c93a7c94600480830195506020945090925090829003018186803b158015610f1157600080fd5b505afa158015610f25573d6000803e3d6000fd5b505050506040513d601f19601f82011682018060405250810190610f499190611919565b9050915091565b600080826001600160a01b0316631a6865026040518163ffffffff1660e01b815260040160206040518083038186803b158015610f8c57600080fd5b505afa158015610fa0573d6000803e3d6000fd5b505050506040513d601f19601f82011682018060405250810190610fc491906119d4565b90506001600160801b038116611060576000836001600160a01b0316633850c7bd6040518163ffffffff1660e01b815260040160e06040518083038186803b15801561100f57600080fd5b505afa158015611023573d6000803e3d6000fd5b505050506040513d601f19601f8201168201806040525081019061104791906119fb565b50505050505090506110588161113c565b92505061106c565b611069836104bd565b91505b50919050565b6000808260020b8460020b8161108457fe5b05905060008460020b1280156110ab57508260020b8460020b816110a457fe5b0760020b15155b156110b557600019015b90910292915050565b60008260020b136110e15760405162461bcd60e51b815260040161023e90611c28565b620d89e8600283900b13156111085760405162461bcd60e51b815260040161023e90611cd7565b8060020b8260020b8161111757fe5b0760020b156111385760405162461bcd60e51b815260040161023e90611d89565b5050565b60006401000276a36001600160a01b03831610801590611178575073fffd8963efd1fc6a506488495d951d5263988d266001600160a01b038316105b6111ad576040805162461bcd60e51b81526020600482015260016024820152602960f91b604482015290519081900360640190fd5b600160201b600160c01b03602083901b166001600160801b03811160071b81811c6001600160401b03811160061b90811c63ffffffff811160051b90811c61ffff811160041b90811c60ff8111600390811b91821c600f811160021b90811c918211600190811b92831c9790881196179094179092171790911717176080811061123f57607f810383901c9150611249565b80607f0383901b91505b908002607f81811c60ff83811c9190911c800280831c81831c1c800280841c81841c1c800280851c81851c1c800280861c81861c1c800280871c81871c1c800280881c81881c1c800280891c81891c1c8002808a1c818a1c1c8002808b1c818b1c1c8002808c1c818c1c1c8002808d1c818d1c1c8002808e1c9c81901c9c909c1c80029c8d901c9e9d607f198f0160401b60c09190911c6001603f1b161760c19b909b1c6001603e1b169a909a1760c29990991c6001603d1b169890981760c39790971c6001603c1b169690961760c49590951c6001603b1b169490941760c59390931c6001603a1b169290921760c69190911c600160391b161760c79190911c600160381b161760c89190911c600160371b161760c99190911c600160361b161760ca9190911c600160351b161760cb9190911c600160341b161760cc9190911c600160331b161760cd9190911c600160321b1617693627a301d71055774c8581026f028f6481ab7f045a5af012a19d003aa9198101608090811d906fdb2df09e81959a81455e260799a0632f8301901d600281810b9083900b1461141857886001600160a01b03166113fc82611427565b6001600160a01b031611156114115781611413565b805b61141a565b815b9998505050505050505050565b60008060008360020b1261143e578260020b611446565b8260020b6000035b9050620d89e8811115611484576040805162461bcd60e51b81526020600482015260016024820152601560fa1b604482015290519081900360640190fd5b60006001821661149857600160801b6114aa565b6ffffcb933bd6fad37aa2d162d1a5940015b6001600160881b0316905060028216156114d4576ffff97272373d413259a46990580e213a0260801c5b60048216156114f3576ffff2e50f5f656932ef12357cf3c7fdcc0260801c5b6008821615611512576fffe5caca7e10e4e61c3624eaa0941cd00260801c5b6010821615611531576fffcb9843d60f6159c9db58835c9266440260801c5b6020821615611550576fff973b41fa98c081472e6896dfb254c00260801c5b604082161561156f576fff2ea16466c96a3843ec78b326b528610260801c5b608082161561158e576ffe5dee046a99a2a811c461f1969c30530260801c5b6101008216156115ae576ffcbe86c7900a88aedcffc83b479aa3a40260801c5b6102008216156115ce576ff987a7253ac413176f2b074cf7815e540260801c5b6104008216156115ee576ff3392b0822b70005940c7a398e4b70f30260801c5b61080082161561160e576fe7159475a2c29b7443b29c7fa6e889d90260801c5b61100082161561162e576fd097f3bdfd2022b8845ad8f792aa58250260801c5b61200082161561164e576fa9f746462d870fdf8a65dc1f90e061e50260801c5b61400082161561166e576f70d869a156d2a1b890bb3df62baf32f70260801c5b61800082161561168e576f31be135f97d08fd981231505542fcfa60260801c5b620100008216156116af576f09aa508b5b7a84e1c677de54f3e99bc90260801c5b620200008216156116cf576e5d6af8dedb81196699c329225ee6040260801c5b620400008216156116ee576d2216e584f5fa1ea926041bedfe980260801c5b6208000082161561170b576b048a170391f7dc42444e8fa20260801c5b60008460020b131561172657806000198161172257fe5b0490505b600160201b81061561173957600161173c565b60005b60ff16602082901c0192505050919050565b600082601f83011261175e578081fd5b8151602061177361176e83611ef6565b611ed3565b828152818101908583018385028701840188101561178f578586fd5b855b858110156117b65781516117a481611f13565b84529284019290840190600101611791565b5090979650505050505050565b8051801515811461064157600080fd5b805161ffff8116811461064157600080fd5b803563ffffffff8116811461064157600080fd5b60006020828403121561180a578081fd5b813561181581611f13565b9392505050565b6000806040838503121561182e578081fd5b82516001600160401b0380821115611844578283fd5b818501915085601f830112611857578283fd5b8151602061186761176e83611ef6565b82815281810190858301838502870184018b1015611883578788fd5b8796505b848710156118b35780518060060b811461189f578889fd5b835260019690960195918301918301611887565b50918801519196509093505050808211156118cc578283fd5b506118d98582860161174e565b9150509250929050565b6000602082840312156118f4578081fd5b611815826117c3565b60006020828403121561190e578081fd5b813561181581611f2b565b60006020828403121561192a578081fd5b815161181581611f2b565b60008082840360a0811215611948578283fd5b6080811215611955578283fd5b50604051608081016001600160401b038111828210171561197257fe5b604052833561198081611f2b565b8152602084013561199081611f2b565b602082015260408401356119a381611f2b565b60408201526119b4606085016117e5565b6060820152915060808301356119c981611f13565b809150509250929050565b6000602082840312156119e5578081fd5b81516001600160801b0381168114611815578182fd5b600080600080600080600060e0888a031215611a15578283fd5b8751611a2081611f13565b6020890151909750611a3181611f2b565b9550611a3f604089016117d3565b9450611a4d606089016117d3565b9350611a5b608089016117d3565b925060a0880151611a6b81611f3a565b9150611a7960c089016117c3565b905092959891949750929550565b600060208284031215611a98578081fd5b813562ffffff81168114611815578182fd5b600060208284031215611abb578081fd5b611815826117e5565b600060208284031215611ad5578081fd5b813561181581611f3a565b6001600160a01b0391909116815260200190565b6020808252825182820181905260009190848201906040850190845b81811015611b3257835163ffffffff1683529284019291840191600101611b10565b50909695505050505050565b60029190910b815260200190565b600292830b8152910b602082015260400190565b600296870b815294860b602086015292850b604085015290840b6060840152830b608083015290910b60a082015260c00190565b602080825260039082015262454e5760e81b604082015260600190565b6020808252818101527f556e6953747261746567793a3a20494e56414c49445f4d554c5449504c494552604082015260600190565b60208082526022908201527f556e6953747261746567793a3a20496e76616c696420507269636520496d706160408201526118dd60f21b606082015260800190565b6020808252601b908201527a0556e6953747261746567793a3a207468726573686f6c64203e203602c1b604082015260600190565b602080825260029082015261151360f21b604082015260600190565b6020808252600290820152615a4160f01b604082015260600190565b60208082526022908201527f556e6953747261746567793a3a2050455243454e544147455f544f4f5f534d41604082015261131360f21b606082015260800190565b6020808252601f908201527f556e6953747261746567793a3a20737472617465677920746f6f206869676800604082015260600190565b60208082526022908201527f556e6953747261746567793a3a2050455243454e544147455f544f4f5f4c4152604082015261474560f01b606082015260800190565b60208082526003908201526226aa2360e91b604082015260600190565b6020808252600290820152610a8960f31b604082015260600190565b60208082526024908201527f556e6953747261746567793a3a2073747261746567792025207469636b53706160408201526363696e6760e01b606082015260800190565b60208082526019908201527853747261746567793a3a204e6f7420676f7665726e616e636560381b604082015260600190565b8251600290810b8252602080850151820b90830152604080850151820b9083015260609384015163ffffffff90811694830194909452915480830b830b6080830152601881901c830b830b60a0830152603081901c830b90920b60c082015260489190911c90911660e08201526101000190565b62ffffff91909116815260200190565b62ffffff92831681529116602082015260400190565b63ffffffff92831681529116602082015260400190565b60ff91909116815260200190565b60ff92831681529116602082015260400190565b6040518181016001600160401b0381118282101715611eee57fe5b604052919050565b60006001600160401b03821115611f0957fe5b5060209081020190565b6001600160a01b0381168114611f2857600080fd5b50565b8060020b8114611f2857600080fd5b60ff81168114611f2857600080fdfea164736f6c6343000706000a",
  "linkReferences": {},
  "deployedLinkReferences": {}
}