{
  "_format": "hh-sol-artifact-1",
  "contractName": "LiquidityMigrator",
  "sourceName": "contracts/LiquidityMigrator.sol",
  "abi": [
    {
      "inputs": [
        {
          "internalType": "address",
          "name": "_unipilot",
          "type": "address"
        },
        {
          "internalType": "address",
          "name": "_exchangeManager",
          "type": "address"
        }
      ],
      "stateMutability": "nonpayable",
      "type": "constructor"
    },
    {
      "anonymous": false,
      "inputs": [
        {
          "indexed": false,
          "internalType": "address",
          "name": "pairV2",
          "type": "address"
        },
        {
          "indexed": false,
          "internalType": "address",
          "name": "unipilotVault",
          "type": "address"
        },
        {
          "indexed": false,
          "internalType": "address",
          "name": "owner",
          "type": "address"
        },
        {
          "indexed": false,
          "internalType": "uint256",
          "name": "unipilotId",
          "type": "uint256"
        },
        {
          "indexed": false,
          "internalType": "uint256",
          "name": "amount0",
          "type": "uint256"
        },
        {
          "indexed": false,
          "internalType": "uint256",
          "name": "amount1",
          "type": "uint256"
        }
      ],
      "name": "LiquidityMigratedFromV2",
      "type": "event"
    },
    {
      "anonymous": false,
      "inputs": [
        {
          "indexed": false,
          "internalType": "address",
          "name": "unipilotVault",
          "type": "address"
        },
        {
          "indexed": false,
          "internalType": "address",
          "name": "owner",
          "type": "address"
        },
        {
          "indexed": false,
          "internalType": "uint256",
          "name": "unipilotId",
          "type": "uint256"
        },
        {
          "indexed": false,
          "internalType": "uint256",
          "name": "amount0",
          "type": "uint256"
        },
        {
          "indexed": false,
          "internalType": "uint256",
          "name": "amount1",
          "type": "uint256"
        }
      ],
      "name": "LiquidityMigratedFromV3",
      "type": "event"
    },
    {
      "anonymous": false,
      "inputs": [
        {
          "indexed": false,
          "internalType": "address",
          "name": "hypervisor",
          "type": "address"
        },
        {
          "indexed": false,
          "internalType": "address",
          "name": "unipilotVault",
          "type": "address"
        },
        {
          "indexed": false,
          "internalType": "address",
          "name": "owner",
          "type": "address"
        },
        {
          "indexed": false,
          "internalType": "uint256",
          "name": "unipilotId",
          "type": "uint256"
        },
        {
          "indexed": false,
          "internalType": "uint256",
          "name": "amount0",
          "type": "uint256"
        },
        {
          "indexed": false,
          "internalType": "uint256",
          "name": "amount1",
          "type": "uint256"
        }
      ],
      "name": "LiquidityMigratedFromVisor",
      "type": "event"
    },
    {
      "stateMutability": "payable",
      "type": "fallback"
    },
    {
      "inputs": [],
      "name": "exchangeManager",
      "outputs": [
        {
          "internalType": "address",
          "name": "",
          "type": "address"
        }
      ],
      "stateMutability": "view",
      "type": "function"
    },
    {
      "inputs": [
        {
          "components": [
            {
              "internalType": "address",
              "name": "pair",
              "type": "address"
            },
            {
              "internalType": "address",
              "name": "liquidityManager",
              "type": "address"
            },
            {
              "internalType": "address",
              "name": "unipilotAddress",
              "type": "address"
            },
            {
              "internalType": "address",
              "name": "token0",
              "type": "address"
            },
            {
              "internalType": "address",
              "name": "token1",
              "type": "address"
            },
            {
              "internalType": "uint24",
              "name": "fee",
              "type": "uint24"
            },
            {
              "internalType": "uint8",
              "name": "percentageToMigrate",
              "type": "uint8"
            },
            {
              "internalType": "uint256",
              "name": "liquidityToMigrate",
              "type": "uint256"
            },
            {
              "internalType": "uint256",
              "name": "sqrtPriceX96",
              "type": "uint256"
            },
            {
              "internalType": "uint256",
              "name": "unipilotTokenId",
              "type": "uint256"
            },
            {
              "internalType": "bool",
              "name": "refundAsETH",
              "type": "bool"
            }
          ],
          "internalType": "struct ILiquidityMigrator.MigrateV2Params",
          "name": "params",
          "type": "tuple"
        }
      ],
      "name": "migrateV2Liquidity",
      "outputs": [],
      "stateMutability": "nonpayable",
      "type": "function"
    },
    {
      "inputs": [
        {
          "components": [
            {
              "internalType": "address",
              "name": "liquidityManager",
              "type": "address"
            },
            {
              "internalType": "address",
              "name": "unipilotAddress",
              "type": "address"
            },
            {
              "internalType": "address",
              "name": "token0",
              "type": "address"
            },
            {
              "internalType": "address",
              "name": "token1",
              "type": "address"
            },
            {
              "internalType": "uint24",
              "name": "fee",
              "type": "uint24"
            },
            {
              "internalType": "uint8",
              "name": "percentageToMigrate",
              "type": "uint8"
            },
            {
              "internalType": "uint256",
              "name": "sqrtPriceX96",
              "type": "uint256"
            },
            {
              "internalType": "uint256",
              "name": "uniswapTokenId",
              "type": "uint256"
            },
            {
              "internalType": "uint256",
              "name": "unipilotTokenId",
              "type": "uint256"
            },
            {
              "internalType": "bool",
              "name": "refundAsETH",
              "type": "bool"
            }
          ],
          "internalType": "struct ILiquidityMigrator.MigrateV3Params",
          "name": "params",
          "type": "tuple"
        }
      ],
      "name": "migrateV3Liquidity",
      "outputs": [],
      "stateMutability": "nonpayable",
      "type": "function"
    },
    {
      "inputs": [
        {
          "components": [
            {
              "internalType": "address",
              "name": "pair",
              "type": "address"
            },
            {
              "internalType": "address",
              "name": "liquidityManager",
              "type": "address"
            },
            {
              "internalType": "address",
              "name": "unipilotAddress",
              "type": "address"
            },
            {
              "internalType": "address",
              "name": "token0",
              "type": "address"
            },
            {
              "internalType": "address",
              "name": "token1",
              "type": "address"
            },
            {
              "internalType": "uint24",
              "name": "fee",
              "type": "uint24"
            },
            {
              "internalType": "uint8",
              "name": "percentageToMigrate",
              "type": "uint8"
            },
            {
              "internalType": "uint256",
              "name": "liquidityToMigrate",
              "type": "uint256"
            },
            {
              "internalType": "uint256",
              "name": "sqrtPriceX96",
              "type": "uint256"
            },
            {
              "internalType": "uint256",
              "name": "unipilotTokenId",
              "type": "uint256"
            },
            {
              "internalType": "bool",
              "name": "refundAsETH",
              "type": "bool"
            }
          ],
          "internalType": "struct ILiquidityMigrator.MigrateV2Params",
          "name": "params",
          "type": "tuple"
        }
      ],
      "name": "migrateVisorLiquidity",
      "outputs": [],
      "stateMutability": "nonpayable",
      "type": "function"
    },
    {
      "inputs": [
        {
          "internalType": "address",
          "name": "operator",
          "type": "address"
        },
        {
          "internalType": "address",
          "name": "from",
          "type": "address"
        },
        {
          "internalType": "uint256",
          "name": "tokenId",
          "type": "uint256"
        },
        {
          "internalType": "bytes",
          "name": "data",
          "type": "bytes"
        }
      ],
      "name": "onERC721Received",
      "outputs": [
        {
          "internalType": "bytes4",
          "name": "",
          "type": "bytes4"
        }
      ],
      "stateMutability": "nonpayable",
      "type": "function"
    },
    {
      "inputs": [
        {
          "internalType": "address",
          "name": "_unipilot",
          "type": "address"
        },
        {
          "internalType": "address",
          "name": "_exchangeManager",
          "type": "address"
        }
      ],
      "name": "setCoreAddresses",
      "outputs": [],
      "stateMutability": "nonpayable",
      "type": "function"
    },
    {
      "inputs": [],
      "name": "unipilot",
      "outputs": [
        {
          "internalType": "address",
          "name": "",
          "type": "address"
        }
      ],
      "stateMutability": "view",
      "type": "function"
    },
    {
      "stateMutability": "payable",
      "type": "receive"
    }
  ],
  "bytecode": "0x60806040523480156200001157600080fd5b506040516200204238038062002042833981016040819052620000349162000083565b600080546001600160a01b039384166001600160a01b03199182161790915560018054929093169116179055620000ba565b80516001600160a01b03811681146200007e57600080fd5b919050565b6000806040838503121562000096578182fd5b620000a18362000066565b9150620000b16020840162000066565b90509250929050565b611f7880620000ca6000396000f3fe6080604052600436106100645760003560e01c8063150b7a021461006d5780632b7610b2146100a357806337c974f0146100c35780638f1ee494146100e3578063a688b5d114610103578063ce7a671814610125578063d58f8de91461013a5761006b565b3661006b57005b005b34801561007957600080fd5b5061008d610088366004611962565b61015a565b60405161009a9190611d3a565b60405180910390f35b3480156100af57600080fd5b5061006b6100be366004611a33565b61016b565b3480156100cf57600080fd5b5061006b6100de36600461192a565b6105d2565b3480156100ef57600080fd5b5061006b6100fe366004611a33565b6106b4565b34801561010f57600080fd5b50610118610a13565b60405161009a9190611c70565b34801561013157600080fd5b50610118610a22565b34801561014657600080fd5b5061006b610155366004611a4b565b610a31565b630a85bd0160e11b95945050505050565b600061017d60e0830160c08401611ae1565b60ff161180156101a05750606461019a60e0830160c08401611ae1565b60ff1611155b6101c55760405162461bcd60e51b81526004016101bc90611d4f565b60405180910390fd5b6101d260208201826118eb565b6001600160a01b03166323b872dd6101e8611000565b6101f560208501856118eb565b8460e001356040518463ffffffff1660e01b815260040161021893929190611c84565b602060405180830381600087803b15801561023257600080fd5b505af1158015610246573d6000803e3d6000fd5b505050506040513d601f19601f8201168201806040525081019061026a9190611a17565b5060008061027b60208401846118eb565b6001600160a01b03166389afcb44306040518263ffffffff1660e01b81526004016102a69190611c70565b6040805180830381600087803b1580156102bf57600080fd5b505af11580156102d3573d6000803e3d6000fd5b505050506040513d601f19601f820116820180604052508101906102f79190611a91565b90925090506000606461031d61031360e0870160c08801611ae1565b859060ff16611004565b8161032457fe5b0490506000606461033e61031360e0880160c08901611ae1565b8161034557fe5b04905061036161035b60808701606088016118eb565b8361102e565b61037a61037460a08701608088016118eb565b8261102e565b600080600080610420604051806101000160405280610397611000565b6001600160a01b031681526020016103b560808d0160608e016118eb565b6001600160a01b031681526020016103d360a08d0160808e016118eb565b6001600160a01b031681526020016103f160c08d0160a08e01611a5d565b62ffffff1681526020018881526020018781526020018b610120013581526020018b610100013581525061104a565b9350935093509350878310156104e357858310156104625761046261044b60808b0160608c016118eb565b61045b60608c0160408d016118eb565b60006112b7565b6104746101608a016101408b016119fb565b80156104a55750600080516020611f4c83398151915261049a60808b0160608c016118eb565b6001600160a01b0316145b156104c1576104bc60006104b7611000565b611405565b6104e3565b6104e36104d460808b0160608c016118eb565b60006104de611000565b611523565b8682101561057357848210156105065761050661044b60a08b0160808c016118eb565b6105186101608a016101408b016119fb565b80156105495750600080516020611f4c83398151915261053e60a08b0160808c016118eb565b6001600160a01b0316145b156105605761055b60006104b7611000565b610573565b6105736104d460a08b0160808c016118eb565b7f66ce08ea5dd533803e6984bf218e05f644d462aadb9e89c6b37ea95a905c56f96105a160208b018b6118eb565b856105aa611000565b8487876040516105bf96959493929190611cd9565b60405180910390a1505050505050505050565b60008054906101000a90046001600160a01b03166001600160a01b0316635aa6e6756040518163ffffffff1660e01b815260040160206040518083038186803b15801561061e57600080fd5b505afa158015610632573d6000803e3d6000fd5b505050506040513d601f19601f82011682018060405250810190610656919061190e565b6001600160a01b0316336001600160a01b0316146106865760405162461bcd60e51b81526004016101bc90611d6c565b600080546001600160a01b039384166001600160a01b03199182161790915560018054929093169116179055565b60006106c660e0830160c08401611ae1565b60ff161180156106e9575060646106e360e0830160c08401611ae1565b60ff1611155b6107055760405162461bcd60e51b81526004016101bc90611d4f565b61071260208201826118eb565b6001600160a01b03166323b872dd610728611000565b308460e001356040518463ffffffff1660e01b815260040161074c93929190611c84565b602060405180830381600087803b15801561076657600080fd5b505af115801561077a573d6000803e3d6000fd5b505050506040513d601f19601f8201168201806040525081019061079e9190611a17565b506000806107af60208401846118eb565b6001600160a01b031663b460af948460e0013530306040518463ffffffff1660e01b81526004016107e293929190611ef5565b6040805180830381600087803b1580156107fb57600080fd5b505af115801561080f573d6000803e3d6000fd5b505050506040513d601f19601f820116820180604052508101906108339190611a91565b90925090506000606461084f61031360e0870160c08801611ae1565b8161085657fe5b0490506000606461087061031360e0880160c08901611ae1565b8161087757fe5b04905061088d61035b60808701606088016118eb565b6108a061037460a08701608088016118eb565b6000806000806108bd604051806101000160405280610397611000565b93509350935093508783101561095557858310156108e8576108e861044b60808b0160608c016118eb565b6108fa6101608a016101408b016119fb565b801561092b5750600080516020611f4c83398151915261092060808b0160608c016118eb565b6001600160a01b0316145b156109425761093d60006104b7611000565b610955565b6109556104d460808b0160608c016118eb565b868210156109e557848210156109785761097861044b60a08b0160808c016118eb565b61098a6101608a016101408b016119fb565b80156109bb5750600080516020611f4c8339815191526109b060a08b0160808c016118eb565b6001600160a01b0316145b156109d2576109cd60006104b7611000565b6109e5565b6109e56104d460a08b0160808c016118eb565b7f11e6f476febb96ce6a5ce1f0ef938f5e3ce02a9048a76924fd9171697bec502d6105a160208b018b6118eb565b6001546001600160a01b031681565b6000546001600160a01b031681565b6000610a4360c0830160a08401611ae1565b60ff16118015610a6657506064610a6060c0830160a08401611ae1565b60ff1611155b610a825760405162461bcd60e51b81526004016101bc90611d4f565b7316b2182ba1632a8b822ecd8a25d9c83652474ca7806342842e0e610aa5611000565b308560e001356040518463ffffffff1660e01b8152600401610ac993929190611c84565b600060405180830381600087803b158015610ae357600080fd5b505af1158015610af7573d6000803e3d6000fd5b505060405163133f757160e31b8152600092507316b2182ba1632a8b822ecd8a25d9c83652474ca791506399fbab8890610b399060e087013590600401611eec565b6101806040518083038186803b158015610b5257600080fd5b505afa158015610b66573d6000803e3d6000fd5b505050506040513d601f19601f82011682018060405250810190610b8a9190611b02565b50505050975050505050505050816001600160a01b0316630c49ccbe6040518060a001604052808660e001358152602001846001600160801b031681526020016000815260200160008152602001426078018152506040518263ffffffff1660e01b8152600401610bfb9190611e03565b6040805180830381600087803b158015610c1457600080fd5b505af1158015610c28573d6000803e3d6000fd5b505050506040513d601f19601f82011682018060405250810190610c4c9190611a91565b50506040805160808101825260e085013581523060208201526001600160801b038183018190526060820152905163fc6f786560e01b815260009182916001600160a01b0386169163fc6f786591610ca79190600401611dc0565b6040805180830381600087803b158015610cc057600080fd5b505af1158015610cd4573d6000803e3d6000fd5b505050506040513d601f19601f82011682018060405250810190610cf89190611a91565b909250905060006064610d1461031360c0890160a08a01611ae1565b81610d1b57fe5b04905060006064610d3561031360c08a0160a08b01611ae1565b81610d3c57fe5b049050610d5261035b6060890160408a016118eb565b610d656103746080890160608a016118eb565b600080600080610e13604051806101000160405280610d82611000565b6001600160a01b031681526020018d6040016020810190610da391906118eb565b6001600160a01b031681526020018d6060016020810190610dc491906118eb565b6001600160a01b031681526020018d6080016020810190610de59190611a5d565b62ffffff1681526020018881526020018781526020018d610100013581526020018d60c0013581525061104a565b935093509350935087831015610ebb5785831015610e4e57610e4e610e3e60608d0160408e016118eb565b61045b60408e0160208f016118eb565b610e606101408c016101208d016119fb565b8015610e915750600080516020611f4c833981519152610e8660608d0160408e016118eb565b6001600160a01b0316145b15610ea857610ea360006104b7611000565b610ebb565b610ebb6104d460608d0160408e016118eb565b86821015610f4b5784821015610ede57610ede610e3e60808d0160608e016118eb565b610ef06101408c016101208d016119fb565b8015610f215750600080516020611f4c833981519152610f1660808d0160608e016118eb565b6001600160a01b0316145b15610f3857610f3360006104b7611000565b610f4b565b610f4b6104d460808d0160608e016118eb565b604051630852cd8d60e31b81526001600160a01b038b16906342966c6890610f7b9060e08f013590600401611eec565b600060405180830381600087803b158015610f9557600080fd5b505af1158015610fa9573d6000803e3d6000fd5b505050507f41e51695be1b9788bded4fa17f74e9771801e1a4e1daab376c94437382802df484610fd7611000565b838686604051610feb959493929190611ca8565b60405180910390a15050505050505050505050565b3390565b600082158061101f5750508181028183828161101c57fe5b04145b61102857600080fd5b92915050565b6000546110469083906001600160a01b0316836112b7565b5050565b6000806000806110678560200151866040015187606001516115db565b93506001600160a01b0384161561117957600085606001518660c00151604051602001611095929190611ed7565b60408051601f1981840301815260005460c08401835289516001600160a01b03908116855260015481166020868101919091528b01518116858501528a840151811660608601526080808c01519086015260a0808c0151908601529251634331950d60e01b81529194509190911691634331950d9161111991908590600401611e9f565b606060405180830381600087803b15801561113357600080fd5b505af1158015611147573d6000803e3d6000fd5b505050506040513d601f19601f8201168201806040525081019061116b9190611ab4565b919550935091506112b09050565b6000604051806040016040528087606001518860e001516040516020016111a1929190611ed7565b6040516020818303038152906040528152602001876060015160006040516020016111cd929190611ebf565b60408051601f198184030181529181529152600054815160c08101835289516001600160a01b03908116825260015481166020838101919091528b01518116828501528a840151811660608301526080808c01519083015260a0808c0151908301529251633b5ea39160e01b8152939450911691633b5ea39191611255918590600401611e41565b606060405180830381600087803b15801561126f57600080fd5b505af1158015611283573d6000803e3d6000fd5b505050506040513d601f19601f820116820180604052508101906112a79190611ab4565b91955093509150505b9193509193565b604080516001600160a01b038481166024830152604480830185905283518084039091018152606490920183526020820180516001600160e01b031663095ea7b360e01b1781529251825160009485949389169392918291908083835b602083106113335780518252601f199092019160209182019101611314565b6001836020036101000a0380198251168184511680821785525050505050509050019150506000604051808303816000865af19150503d8060008114611395576040519150601f19603f3d011682016040523d82523d6000602084013e61139a565b606091505b50915091508180156113c85750805115806113c857508080602001905160208110156113c557600080fd5b50515b6113fe576040805162461bcd60e51b8152602060048201526002602482015261534160f01b604482015290519081900360640190fd5b5050505050565b6040516370a0823160e01b8152600090600080516020611f4c833981519152906370a0823190611439903090600401611c70565b60206040518083038186803b15801561145157600080fd5b505afa158015611465573d6000803e3d6000fd5b505050506040513d601f19601f820116820180604052508101906114899190611a79565b9050828110156114ab5760405162461bcd60e51b81526004016101bc90611da4565b801561151e57604051632e1a7d4d60e01b8152600080516020611f4c83398151915290632e1a7d4d906114e2908490600401611eec565b600060405180830381600087803b1580156114fc57600080fd5b505af1158015611510573d6000803e3d6000fd5b5050505061151e8282611671565b505050565b6040516370a0823160e01b81526000906001600160a01b038516906370a0823190611552903090600401611c70565b60206040518083038186803b15801561156a57600080fd5b505afa15801561157e573d6000803e3d6000fd5b505050506040513d601f19601f820116820180604052508101906115a29190611a79565b9050828110156115c45760405162461bcd60e51b81526004016101bc90611d88565b80156115d5576115d5848383611760565b50505050565b604051630b4c774160e11b815260009073fd98da817662ff676b38dfd5ed327db8621332fc90631698ee829061161990879087908790600401611d12565b60206040518083038186803b15801561163157600080fd5b505afa158015611645573d6000803e3d6000fd5b505050506040513d601f19601f82011682018060405250810190611669919061190e565b949350505050565b604080516000808252602082019092526001600160a01b0384169083906040518082805190602001908083835b602083106116bd5780518252601f19909201916020918201910161169e565b6001836020036101000a03801982511681845116808217855250505050505090500191505060006040518083038185875af1925050503d806000811461171f576040519150601f19603f3d011682016040523d82523d6000602084013e611724565b606091505b505090508061151e576040805162461bcd60e51b815260206004820152600360248201526253544560e81b604482015290519081900360640190fd5b604080516001600160a01b038481166024830152604480830185905283518084039091018152606490920183526020820180516001600160e01b031663a9059cbb60e01b1781529251825160009485949389169392918291908083835b602083106117dc5780518252601f1990920191602091820191016117bd565b6001836020036101000a0380198251168184511680821785525050505050509050019150506000604051808303816000865af19150503d806000811461183e576040519150601f19603f3d011682016040523d82523d6000602084013e611843565b606091505b5091509150818015611871575080511580611871575080806020019051602081101561186e57600080fd5b50515b6113fe576040805162461bcd60e51b815260206004820152600260248201526114d560f21b604482015290519081900360640190fd5b80516118b281611f14565b919050565b8051600281900b81146118b257600080fd5b80516001600160801b03811681146118b257600080fd5b80516118b281611f3a565b6000602082840312156118fc578081fd5b813561190781611f14565b9392505050565b60006020828403121561191f578081fd5b815161190781611f14565b6000806040838503121561193c578081fd5b823561194781611f14565b9150602083013561195781611f14565b809150509250929050565b600080600080600060808688031215611979578081fd5b853561198481611f14565b9450602086013561199481611f14565b93506040860135925060608601356001600160401b03808211156119b6578283fd5b818801915088601f8301126119c9578283fd5b8135818111156119d7578384fd5b8960208285010111156119e8578384fd5b9699959850939650602001949392505050565b600060208284031215611a0c578081fd5b813561190781611f2c565b600060208284031215611a28578081fd5b815161190781611f2c565b60006101608284031215611a45578081fd5b50919050565b60006101408284031215611a45578081fd5b600060208284031215611a6e578081fd5b813561190781611f3a565b600060208284031215611a8a578081fd5b5051919050565b60008060408385031215611aa3578182fd5b505080516020909101519092909150565b600080600060608486031215611ac8578283fd5b8351925060208401519150604084015190509250925092565b600060208284031215611af2578081fd5b813560ff81168114611907578182fd5b6000806000806000806000806000806000806101808d8f031215611b2457898afd5b8c516001600160601b0381168114611b3a578a8bfd5b9b50611b4860208e016118a7565b9a50611b5660408e016118a7565b9950611b6460608e016118a7565b9850611b7260808e016118e0565b9750611b8060a08e016118b7565b9650611b8e60c08e016118b7565b9550611b9c60e08e016118c9565b94506101008d015193506101208d01519250611bbb6101408e016118c9565b9150611bca6101608e016118c9565b90509295989b509295989b509295989b565b60008151808452815b81811015611c0157602081850181015186830182015201611be5565b81811115611c125782602083870101525b50601f01601f19169290920160200192915050565b80516001600160a01b039081168352602080830151821690840152604080830151821690840152606080830151909116908301526080808201519083015260a090810151910152565b6001600160a01b0391909116815260200190565b6001600160a01b039384168152919092166020820152604081019190915260600190565b6001600160a01b03958616815293909416602084015260408301919091526060820152608081019190915260a00190565b6001600160a01b03968716815294861660208601529290941660408401526060830152608082019290925260a081019190915260c00190565b6001600160a01b03938416815291909216602082015262ffffff909116604082015260600190565b6001600160e01b031991909116815260200190565b60208082526003908201526249504160e81b604082015260600190565b6020808252600290820152614e4760f01b604082015260600190565b602080825260029082015261125560f21b604082015260600190565b602080825260029082015261495760f01b604082015260600190565b815181526020808301516001600160a01b0316908201526040808301516001600160801b0390811691830191909152606092830151169181019190915260800190565b815181526020808301516001600160801b03169082015260408083015190820152606080830151908201526080918201519181019190915260a00190565b600060e08201611e518386611c27565b60e060c084015261012083019084835b6002811015611e935760df19868503018352611e7e848351611bdc565b93506020928301929190910190600101611e61565b50919695505050505050565b6000611eab8285611c27565b60e060c083015261166960e0830184611bdc565b62ffffff92909216825260ff16602082015260400190565b62ffffff929092168252602082015260400190565b90815260200190565b9283526001600160a01b03918216602084015216604082015260600190565b6001600160a01b0381168114611f2957600080fd5b50565b8015158114611f2957600080fd5b62ffffff81168114611f2957600080fdfe000000000000000000000000b91345b44a81e23848bd0f5b9ae452fd7b48d7e5a164736f6c6343000706000a",
  "linkReferences": {},
  "deployedLinkReferences": {}
}