{
  "_format": "hh-sol-artifact-1",
  "contractName": "UniswapLiquidityManager",
  "sourceName": "contracts/base/UniswapLiquidityManager.sol",
  "abi": [
    {
      "inputs": [
        {
          "internalType": "address",
          "name": "oracle_",
          "type": "address"
        },
        {
          "internalType": "address",
          "name": "ulmState_",
          "type": "address"
        },
        {
          "internalType": "address",
          "name": "indexFund_",
          "type": "address"
        },
        {
          "internalType": "address",
          "name": "uniStrategy_",
          "type": "address"
        },
        {
          "internalType": "address",
          "name": "unipilotAddress_",
          "type": "address"
        }
      ],
      "stateMutability": "nonpayable",
      "type": "constructor"
    },
    {
      "anonymous": false,
      "inputs": [
        {
          "indexed": false,
          "internalType": "uint256",
          "name": "tokenId",
          "type": "uint256"
        },
        {
          "indexed": false,
          "internalType": "uint256",
          "name": "userAmount0",
          "type": "uint256"
        },
        {
          "indexed": false,
          "internalType": "uint256",
          "name": "userAmount1",
          "type": "uint256"
        },
        {
          "indexed": false,
          "internalType": "uint256",
          "name": "indexAmount0",
          "type": "uint256"
        },
        {
          "indexed": false,
          "internalType": "uint256",
          "name": "indexAmount1",
          "type": "uint256"
        },
        {
          "indexed": false,
          "internalType": "uint256",
          "name": "pilotAmount",
          "type": "uint256"
        },
        {
          "indexed": false,
          "internalType": "address",
          "name": "pool",
          "type": "address"
        },
        {
          "indexed": false,
          "internalType": "address",
          "name": "recipient",
          "type": "address"
        }
      ],
      "name": "Collect",
      "type": "event"
    },
    {
      "anonymous": false,
      "inputs": [
        {
          "indexed": true,
          "internalType": "address",
          "name": "pool",
          "type": "address"
        },
        {
          "indexed": false,
          "internalType": "uint256",
          "name": "tokenId",
          "type": "uint256"
        },
        {
          "indexed": false,
          "internalType": "uint256",
          "name": "amount0",
          "type": "uint256"
        },
        {
          "indexed": false,
          "internalType": "uint256",
          "name": "amount1",
          "type": "uint256"
        },
        {
          "indexed": false,
          "internalType": "uint256",
          "name": "liquidity",
          "type": "uint256"
        }
      ],
      "name": "Deposited",
      "type": "event"
    },
    {
      "anonymous": false,
      "inputs": [
        {
          "indexed": true,
          "internalType": "address",
          "name": "token0",
          "type": "address"
        },
        {
          "indexed": true,
          "internalType": "address",
          "name": "token1",
          "type": "address"
        },
        {
          "indexed": true,
          "internalType": "address",
          "name": "pool",
          "type": "address"
        },
        {
          "indexed": false,
          "internalType": "uint24",
          "name": "fee",
          "type": "uint24"
        },
        {
          "indexed": false,
          "internalType": "uint160",
          "name": "sqrtPriceX96",
          "type": "uint160"
        }
      ],
      "name": "PoolCreated",
      "type": "event"
    },
    {
      "anonymous": false,
      "inputs": [
        {
          "indexed": false,
          "internalType": "address",
          "name": "pool",
          "type": "address"
        },
        {
          "indexed": false,
          "internalType": "uint128",
          "name": "baseLiquidity",
          "type": "uint128"
        },
        {
          "indexed": false,
          "internalType": "uint128",
          "name": "rangeLiquidity",
          "type": "uint128"
        },
        {
          "indexed": false,
          "internalType": "int24",
          "name": "newBaseTickLower",
          "type": "int24"
        },
        {
          "indexed": false,
          "internalType": "int24",
          "name": "newBaseTickUpper",
          "type": "int24"
        },
        {
          "indexed": false,
          "internalType": "int24",
          "name": "newRangeTickLower",
          "type": "int24"
        },
        {
          "indexed": false,
          "internalType": "int24",
          "name": "newRangeTickUpper",
          "type": "int24"
        }
      ],
      "name": "PoolReajusted",
      "type": "event"
    },
    {
      "anonymous": false,
      "inputs": [
        {
          "indexed": true,
          "internalType": "address",
          "name": "pool",
          "type": "address"
        },
        {
          "indexed": true,
          "internalType": "address",
          "name": "recipient",
          "type": "address"
        },
        {
          "indexed": false,
          "internalType": "uint256",
          "name": "tokenId",
          "type": "uint256"
        },
        {
          "indexed": false,
          "internalType": "uint256",
          "name": "amount0",
          "type": "uint256"
        },
        {
          "indexed": false,
          "internalType": "uint256",
          "name": "amount1",
          "type": "uint256"
        }
      ],
      "name": "Withdrawn",
      "type": "event"
    },
    {
      "stateMutability": "payable",
      "type": "fallback"
    },
    {
      "inputs": [
        {
          "internalType": "bool",
          "name": "pilotToken",
          "type": "bool"
        },
        {
          "internalType": "bool",
          "name": "wethToken",
          "type": "bool"
        },
        {
          "internalType": "uint256",
          "name": "tokenId",
          "type": "uint256"
        },
        {
          "internalType": "bytes",
          "name": "data",
          "type": "bytes"
        }
      ],
      "name": "collect",
      "outputs": [],
      "stateMutability": "payable",
      "type": "function"
    },
    {
      "inputs": [
        {
          "internalType": "address",
          "name": "_token0",
          "type": "address"
        },
        {
          "internalType": "address",
          "name": "_token1",
          "type": "address"
        },
        {
          "internalType": "bytes",
          "name": "data",
          "type": "bytes"
        }
      ],
      "name": "createPair",
      "outputs": [
        {
          "internalType": "address",
          "name": "_pool",
          "type": "address"
        }
      ],
      "stateMutability": "nonpayable",
      "type": "function"
    },
    {
      "inputs": [
        {
          "internalType": "address",
          "name": "token0",
          "type": "address"
        },
        {
          "internalType": "address",
          "name": "token1",
          "type": "address"
        },
        {
          "internalType": "address",
          "name": "sender",
          "type": "address"
        },
        {
          "internalType": "uint256",
          "name": "amount0Desired",
          "type": "uint256"
        },
        {
          "internalType": "uint256",
          "name": "amount1Desired",
          "type": "uint256"
        },
        {
          "internalType": "uint256",
          "name": "shares",
          "type": "uint256"
        },
        {
          "internalType": "bytes",
          "name": "data",
          "type": "bytes"
        }
      ],
      "name": "deposit",
      "outputs": [
        {
          "internalType": "uint256",
          "name": "amount0Added",
          "type": "uint256"
        },
        {
          "internalType": "uint256",
          "name": "amount1Added",
          "type": "uint256"
        },
        {
          "internalType": "uint256",
          "name": "mintedTokenId",
          "type": "uint256"
        }
      ],
      "stateMutability": "payable",
      "type": "function"
    },
    {
      "inputs": [
        {
          "internalType": "address",
          "name": "recipient",
          "type": "address"
        },
        {
          "internalType": "bytes[10]",
          "name": "data",
          "type": "bytes[10]"
        }
      ],
      "name": "emergencyExit",
      "outputs": [],
      "stateMutability": "nonpayable",
      "type": "function"
    },
    {
      "inputs": [
        {
          "internalType": "address",
          "name": "token0",
          "type": "address"
        },
        {
          "internalType": "address",
          "name": "token1",
          "type": "address"
        },
        {
          "internalType": "bytes",
          "name": "data",
          "type": "bytes"
        }
      ],
      "name": "getReserves",
      "outputs": [
        {
          "internalType": "uint256",
          "name": "totalAmount0",
          "type": "uint256"
        },
        {
          "internalType": "uint256",
          "name": "totalAmount1",
          "type": "uint256"
        },
        {
          "internalType": "uint256",
          "name": "totalLiquidity",
          "type": "uint256"
        }
      ],
      "stateMutability": "nonpayable",
      "type": "function"
    },
    {
      "inputs": [
        {
          "internalType": "uint256",
          "name": "tokenId",
          "type": "uint256"
        }
      ],
      "name": "getUserFees",
      "outputs": [
        {
          "internalType": "uint256",
          "name": "fees0",
          "type": "uint256"
        },
        {
          "internalType": "uint256",
          "name": "fees1",
          "type": "uint256"
        }
      ],
      "stateMutability": "nonpayable",
      "type": "function"
    },
    {
      "inputs": [
        {
          "internalType": "address",
          "name": "",
          "type": "address"
        }
      ],
      "name": "liquidityPositions",
      "outputs": [
        {
          "internalType": "int24",
          "name": "baseTickLower",
          "type": "int24"
        },
        {
          "internalType": "int24",
          "name": "baseTickUpper",
          "type": "int24"
        },
        {
          "internalType": "uint128",
          "name": "baseLiquidity",
          "type": "uint128"
        },
        {
          "internalType": "int24",
          "name": "rangeTickLower",
          "type": "int24"
        },
        {
          "internalType": "int24",
          "name": "rangeTickUpper",
          "type": "int24"
        },
        {
          "internalType": "uint128",
          "name": "rangeLiquidity",
          "type": "uint128"
        },
        {
          "internalType": "uint256",
          "name": "fees0",
          "type": "uint256"
        },
        {
          "internalType": "uint256",
          "name": "fees1",
          "type": "uint256"
        },
        {
          "internalType": "uint256",
          "name": "feeGrowthGlobal0",
          "type": "uint256"
        },
        {
          "internalType": "uint256",
          "name": "feeGrowthGlobal1",
          "type": "uint256"
        },
        {
          "internalType": "uint256",
          "name": "totalLiquidity",
          "type": "uint256"
        }
      ],
      "stateMutability": "view",
      "type": "function"
    },
    {
      "inputs": [
        {
          "internalType": "uint256",
          "name": "",
          "type": "uint256"
        }
      ],
      "name": "positions",
      "outputs": [
        {
          "internalType": "uint256",
          "name": "nonce",
          "type": "uint256"
        },
        {
          "internalType": "address",
          "name": "pool",
          "type": "address"
        },
        {
          "internalType": "uint256",
          "name": "liquidity",
          "type": "uint256"
        },
        {
          "internalType": "uint256",
          "name": "feeGrowth0",
          "type": "uint256"
        },
        {
          "internalType": "uint256",
          "name": "feeGrowth1",
          "type": "uint256"
        },
        {
          "internalType": "uint256",
          "name": "tokensOwed0",
          "type": "uint256"
        },
        {
          "internalType": "uint256",
          "name": "tokensOwed1",
          "type": "uint256"
        }
      ],
      "stateMutability": "view",
      "type": "function"
    },
    {
      "inputs": [
        {
          "internalType": "address",
          "name": "pool",
          "type": "address"
        }
      ],
      "name": "readjustFrequencyStatus",
      "outputs": [
        {
          "internalType": "bool",
          "name": "status",
          "type": "bool"
        }
      ],
      "stateMutability": "nonpayable",
      "type": "function"
    },
    {
      "inputs": [
        {
          "internalType": "address",
          "name": "token0",
          "type": "address"
        },
        {
          "internalType": "address",
          "name": "token1",
          "type": "address"
        },
        {
          "internalType": "uint24",
          "name": "fee",
          "type": "uint24"
        }
      ],
      "name": "readjustLiquidity",
      "outputs": [],
      "stateMutability": "nonpayable",
      "type": "function"
    },
    {
      "inputs": [
        {
          "internalType": "address",
          "name": "oracle_",
          "type": "address"
        },
        {
          "internalType": "address",
          "name": "ulmState_",
          "type": "address"
        },
        {
          "internalType": "address",
          "name": "indexFund_",
          "type": "address"
        },
        {
          "internalType": "address",
          "name": "uniStrategy_",
          "type": "address"
        },
        {
          "internalType": "address",
          "name": "unipilotAddress_",
          "type": "address"
        }
      ],
      "name": "setCoreAddresses",
      "outputs": [],
      "stateMutability": "nonpayable",
      "type": "function"
    },
    {
      "inputs": [
        {
          "internalType": "address",
          "name": "recipient",
          "type": "address"
        },
        {
          "internalType": "uint8",
          "name": "pilotPercentage",
          "type": "uint8"
        },
        {
          "internalType": "uint8",
          "name": "userPilotPercentage",
          "type": "uint8"
        },
        {
          "internalType": "bool",
          "name": "status",
          "type": "bool"
        }
      ],
      "name": "setPilotProtocolDetails",
      "outputs": [],
      "stateMutability": "nonpayable",
      "type": "function"
    },
    {
      "inputs": [
        {
          "internalType": "address",
          "name": "pool",
          "type": "address"
        },
        {
          "internalType": "uint256",
          "name": "premium_",
          "type": "uint256"
        },
        {
          "internalType": "uint256",
          "name": "gasPriceLimit_",
          "type": "uint256"
        },
        {
          "internalType": "bool",
          "name": "premiumStatus_",
          "type": "bool"
        }
      ],
      "name": "setReadjustPremiumForPools",
      "outputs": [],
      "stateMutability": "nonpayable",
      "type": "function"
    },
    {
      "inputs": [
        {
          "internalType": "address",
          "name": "pool",
          "type": "address"
        }
      ],
      "name": "toggleFeesInPilot",
      "outputs": [],
      "stateMutability": "nonpayable",
      "type": "function"
    },
    {
      "inputs": [
        {
          "internalType": "uint256",
          "name": "amount0Owed",
          "type": "uint256"
        },
        {
          "internalType": "uint256",
          "name": "amount1Owed",
          "type": "uint256"
        },
        {
          "internalType": "bytes",
          "name": "data",
          "type": "bytes"
        }
      ],
      "name": "uniswapV3MintCallback",
      "outputs": [],
      "stateMutability": "nonpayable",
      "type": "function"
    },
    {
      "inputs": [
        {
          "internalType": "int256",
          "name": "amount0Delta",
          "type": "int256"
        },
        {
          "internalType": "int256",
          "name": "amount1Delta",
          "type": "int256"
        },
        {
          "internalType": "bytes",
          "name": "data",
          "type": "bytes"
        }
      ],
      "name": "uniswapV3SwapCallback",
      "outputs": [],
      "stateMutability": "nonpayable",
      "type": "function"
    },
    {
      "inputs": [
        {
          "internalType": "address",
          "name": "_pool",
          "type": "address"
        }
      ],
      "name": "updatePositionTotalAmounts",
      "outputs": [
        {
          "internalType": "uint256",
          "name": "fee0",
          "type": "uint256"
        },
        {
          "internalType": "uint256",
          "name": "fee1",
          "type": "uint256"
        },
        {
          "internalType": "uint256",
          "name": "amount0",
          "type": "uint256"
        },
        {
          "internalType": "uint256",
          "name": "amount1",
          "type": "uint256"
        },
        {
          "internalType": "uint256",
          "name": "totalLiquidity",
          "type": "uint256"
        }
      ],
      "stateMutability": "nonpayable",
      "type": "function"
    },
    {
      "inputs": [
        {
          "internalType": "bool",
          "name": "pilotToken",
          "type": "bool"
        },
        {
          "internalType": "bool",
          "name": "wethToken",
          "type": "bool"
        },
        {
          "internalType": "uint256",
          "name": "liquidity",
          "type": "uint256"
        },
        {
          "internalType": "uint256",
          "name": "tokenId",
          "type": "uint256"
        },
        {
          "internalType": "bytes",
          "name": "data",
          "type": "bytes"
        }
      ],
      "name": "withdraw",
      "outputs": [],
      "stateMutability": "payable",
      "type": "function"
    },
    {
      "stateMutability": "payable",
      "type": "receive"
    }
  ],
  "bytecode": "0x60806040526007805460ff191660011790553480156200001e57600080fd5b5060405162006128380380620061288339810160408190526200004191620000cf565b600280546001600160a01b03199081166001600160a01b0393841617909155600380548216938316939093179092556004805483169382169390931790925560018054821693831693909317909255600080549092169216919091179055637143281560055560626006556200013e565b80516001600160a01b0381168114620000ca57600080fd5b919050565b600080600080600060a08688031215620000e7578081fd5b620000f286620000b2565b94506200010260208701620000b2565b93506200011260408701620000b2565b92506200012260608701620000b2565b91506200013260808701620000b2565b90509295509295909350565b615fda806200014e6000396000f3fe6080604052600436106100dd5760003560e01c80630121240c146100e65780630145f2d1146100f9578063026d1c8e146101195780630caa03af1461012c57806334aed4aa1461016457806358b79d4a14610184578063595e6f11146101a4578063602c231d146101d1578063688e4ea1146102025780636fd0ea9214610215578063749b1d591461024c57806399fbab88146102795780639b12a1f7146102ac578063d3487997146102cc578063d84e1d8e146102ec578063dea68ea01461030c578063e14767b51461032c578063fa461e331461035a576100e4565b366100e457005b005b6100e46100f436600461569d565b61037a565b34801561010557600080fd5b506100e461011436600461557f565b610555565b6100e4610127366004615634565b6105aa565b34801561013857600080fd5b5061014c61014736600461533a565b6106fc565b60405161015b93929190615e91565b60405180910390f35b34801561017057600080fd5b506100e461017f36600461519a565b61073c565b34801561019057600080fd5b506100e461019f3660046155c8565b61076d565b3480156101b057600080fd5b506101c46101bf36600461519a565b6107e4565b60405161015b9190615d07565b3480156101dd57600080fd5b506101f16101ec36600461519a565b610859565b60405161015b959493929190615ec2565b61014c6102103660046152ab565b6109ee565b34801561022157600080fd5b5061023561023036600461519a565b610da6565b60405161015b9b9a99989796959493929190615d38565b34801561025857600080fd5b5061026c61026736600461539c565b610e19565b60405161015b9190615aaf565b34801561028557600080fd5b506102996102943660046159a4565b610f85565b60405161015b9796959493929190615e4a565b3480156102b857600080fd5b506100e46102c73660046154dd565b610fcc565b3480156102d857600080fd5b506100e46102e73660046157a6565b611239565b3480156102f857600080fd5b506100e461030736600461523b565b61129d565b34801561031857600080fd5b506100e46103273660046153fb565b611305565b34801561033857600080fd5b5061034c6103473660046159a4565b611e1f565b60405161015b929190615e83565b34801561036657600080fd5b506100e46103753660046157a6565b611eac565b610382611f04565b60075460ff1660011461039457600080fd5b6007805460ff191690556000828152600860205260409020836103b657600080fd5b80600201548411156103c757600080fd5b6103cf614e50565b828060200190518101906103e391906151b6565b6001600160a01b0390811682526001830154610403916000911687611f1d565b604080840191825260208085019384528151610100810183528b151581528a15159181019190915260018601546001600160a01b0390811692820192909252845190911660608201526080810187905260a08101889052915160c08301525160e082015261047090612141565b60e086015260c085015260a08401526080830152606082015280516001830154602083015160408085015190516001600160a01b0394851694909316927f3cae9923fd3c2f468aa25a8ef687923e37f957459557c0380fd06526c0b8cdbc926104da928a92615e91565b60405180910390a36060810151608082015160a083015160c084015160e085015160018701548651604051600080516020615f6e83398151915297610537978d97919690959194909391926001600160a01b039091169190615ee5565b60405180910390a150506007805460ff191660011790555050505050565b61055d612497565b604080518082018252911515825260208083019485526001600160a01b03959095166000908152600c9095529093209251835460ff19169015151783559051600190920191909155600555565b6105b2611f04565b60075460ff166001146105c457600080fd5b6007805460ff19169055600082815260086020526040902060028101546105ea57600080fd5b60008280602001905181019061060091906151b6565b600183015490915061061a906001600160a01b031661253a565b60008060008060006106946040518061010001604052808d151581526020018c151581526020018960010160009054906101000a90046001600160a01b03166001600160a01b03168152602001886001600160a01b031681526020018b815260200160008152602001600081526020016000815250612141565b60018c0154604051959a5093985091965094509250600080516020615f6e833981519152916106da918c91899189918991899189916001600160a01b0316908f90615ee5565b60405180910390a150506007805460ff19166001179055505050505050505050565b600080808061070d8587018761594c565b509050600061071d89898461277a565b905061072881610859565b919d909c50909a5098505050505050505050565b610744612497565b6001600160a01b03166000908152600b60205260409020805460ff19811660ff90911615179055565b610775612497565b604080516060810182526001600160a01b039590951680865260ff9485166020870181905292151595909101859052600d80546001600160a01b03191690911760ff60a01b1916600160a01b9092029190911760ff60a81b1916600160a81b9094029390931790925516600655565b6001600160a01b0381166000908152600a602052604081205461038442919091031115610837576001600160a01b0382166000908152600a602052604081206001810191909155600201805460ff191690555b506001600160a01b03166000908152600a602052604090206002015460ff1690565b6001600160a01b03811660009081526009602090815260408083208151610160810183528154600281810b810b810b835263010000008204810b810b810b958301959095526001600160801b03600160301b8204811694830194909452600160b01b8104850b850b850b6060830152600160c81b9004840b840b840b6080820152600182015490921660a08301529182015460c0820152600382015460e08201526004820154610100820152600582015461012082015260069091015461014082018190528291829182918291156109e35761093e8160000151826020015189612812565b6109518160600151826080015189612812565b600154604051635b1a880f60e11b81526001600160a01b039091169063b635101e90610983908a903090600401615b8b565b60a06040518083038186803b15801561099b57600080fd5b505afa1580156109af573d6000803e3d6000fd5b505050506040513d601f19601f820116820180604052508101906109d39190615a09565b95509550955095509550506109e5565b505b91939590929450565b60008060006109fb611f04565b610a03614e9e565b84806020019051810190610a179190615977565b602083015262ffffff16808252610a31908c908c9061277a565b6001600160a01b03166040808301829052600091825260096020529020600681015415610a6557610a65826040015161253a565b610aaa6040518060a001604052808c6001600160a01b0316815260200184604001516001600160a01b031681526020018b81526020018a8152602001898152506128c5565b60c086015260a085015260808401526060830152602082015115610bbb576020808301516000908152600890915260409081902060018101549184015190916001600160a01b03918216911614610b0057600080fd5b610b1d81600301548360040154038260020154600160801b612e84565b8160050160008282540192505081905550610b4b81600401548360050154038260020154600160801b612e84565b6006820180549091019055600281018054890190556004828101546003830155600583015490820155604080840151602085015191516001600160a01b0390911691600080516020615f8e83398151915291610bad91908e908e908e90615ea7565b60405180910390a250610d17565b600254604051634644e86560e01b81526001600160a01b0390911690634644e86590610beb908d90600401615aaf565b602060405180830381600087803b158015610c0557600080fd5b505af1158015610c19573d6000803e3d6000fd5b505050506040513d601f19601f82011682018060405250810190610c3d91906159bc565b6040805160e081018252600080825285830180516001600160a01b0390811660208086019182528587018f815260048a810154606089019081526005808d015460808b0190815260a08b018a815260c08c018b81528e8c526008909752998c90209a518b55955160018b0180546001600160a01b031916918916919091179055925160028a01555160038901559251928701929092559351908501559151600690930192909255905191519295501690600080516020615f8e83398151915290610d0e9086908d908d908d90615ea7565b60405180910390a25b610d3c82604001518360a001518460600151018460c001518560800151018c8c612f33565b61010084015260e0830181905260a0830151610d6791610d5c9190612fd4565b606084015190612fd4565b610d91610d868461010001518560c00151612fd490919063ffffffff16565b608085015190612fd4565b909d909c50929a509198505050505050505050565b60096020526000908152604090208054600182015460028084015460038501546004860154600587015460069097015486850b9763010000008804860b976001600160801b03600160301b8204811698600160b01b8304890b98600160c81b90930490920b96911694909390929091908b565b600080600083806020019051810190610e329190615913565b60405163a167129560e01b8152919350915073fd98da817662ff676b38dfd5ed327db8621332fc9063a167129590610e7290899089908790600401615ba5565b602060405180830381600087803b158015610e8c57600080fd5b505af1158015610ea0573d6000803e3d6000fd5b505050506040513d601f19601f82011682018060405250810190610ec491906151b6565b60405163f637731d60e01b81529093506001600160a01b0384169063f637731d90610ef3908490600401615aaf565b600060405180830381600087803b158015610f0d57600080fd5b505af1158015610f21573d6000803e3d6000fd5b50505050826001600160a01b0316856001600160a01b0316876001600160a01b03167f1e0ec922dce1f1a88ad6fca4aecc5eefbda9b5c760e9acc4e70e1672ed80760e8585604051610f74929190615e23565b60405180910390a450509392505050565b600860205260009081526040902080546001820154600283015460038401546004850154600586015460069096015494956001600160a01b03909416949293919290919087565b610fd4612497565b60005b600a8110156112345760008060008060008686600a8110610ff457fe5b602002015180602001905181019061100c91906151d2565b9398509196509450925090506001600160a01b038416156111915760405163a34123a760e01b81526001600160a01b0385169063a34123a79061105790869086908690600401615d12565b6040805180830381600087803b15801561107057600080fd5b505af1158015611084573d6000803e3d6000fd5b505050506040513d601f19601f820116820180604052508101906110a89190615783565b50506040516309e3d67b60e31b81526001600160a01b03851690634f1eb3d8906110e5908b90879087906001600160801b03908190600401615b4e565b6040805180830381600087803b1580156110fe57600080fd5b505af1158015611112573d6000803e3d6000fd5b505050506040513d601f19601f8201168201806040525081019061113691906158c5565b50506001600160a01b038416600090815260096020526040812080546001600160e01b03191681556001810180546001600160801b031916905560028101829055600381018290556004810182905560058101829055600601555b6040516370a0823160e01b81526000906001600160a01b038716906370a08231906111c0903090600401615aaf565b60206040518083038186803b1580156111d857600080fd5b505afa1580156111ec573d6000803e3d6000fd5b505050506040513d601f19601f8201168201806040525081019061121091906159bc565b9050801561122357611223868a83612fea565b505050505050806001019050610fd7565b505050565b336000611248838501856157de565b9050611261816020015182604001518360600151613131565b851561127b5761127b816020015182600001518489613159565b841561129557611295816040015182600001518488613159565b505050505050565b6112a5612497565b600280546001600160a01b03199081166001600160a01b0393841617909155600380548216938316939093179092556004805483169382169390931790925560018054821693831693909317909255600080549092169216919091179055565b60005a9050611312614ef8565b61131d85858561277a565b6001600160a01b031660208201819052611336906107e4565b1561134057600080fd5b600154602082015160405163fd78861760e01b81526001600160a01b039092169163fd78861791611375913090600401615b8b565b60206040518083038186803b15801561138d57600080fd5b505afa1580156113a1573d6000803e3d6000fd5b505050506040513d601f19601f820116820180604052508101906113c59190615618565b6113ce57600080fd5b602080820180516001600160a01b039081166000908152600a84526040808220429055835190921681526009909352909120905161140b906132a6565b506001600160a01b0316606088015250505060208401516006840154611435935060019250611f1d565b61010084015260e0830181905215806114515750610100820151155b156117685760008260e001511161146f576000826101000151611477565b60018260e001515b6101208401521515825260035460408051639456c13160e01b81529051620f4240926002926001600160a01b0390911691639456c13191600480820192602092909190829003018186803b1580156114ce57600080fd5b505afa1580156114e2573d6000803e3d6000fd5b505050506040513d601f19601f8201168201806040525081019061150691906158f7565b62ffffff168161151257fe5b0462ffffff168360600151026001600160a01b03168161152e57fe5b046001600160a01b03166080830152815161155357816080015182606001510161155f565b81608001518260600151035b6001600160a01b0390811660a084015261012083015160035460408051634b52a23360e01b815290516115f9949290921691634b52a23391600480820192602092909190829003018186803b1580156115b757600080fd5b505afa1580156115cb573d6000803e3d6000fd5b505050506040513d601f19601f820116820180604052508101906115ef9190615a48565b60ff166064612e84565b61012083018190526020830151835160009283926001600160a01b03169163128acb08913091906116299061334a565b8860a0015160405180606001604052808f6001600160a01b031681526020018e6001600160a01b031681526020018d62ffffff168152506040516020016116709190615def565b6040516020818303038152906040526040518663ffffffff1660e01b815260040161169f959493929190615ac3565b6040805180830381600087803b1580156116b857600080fd5b505af11580156116cc573d6000803e3d6000fd5b505050506040513d601f19601f820116820180604052508101906116f09190615783565b9150915060018112156117335760e0840151600091909103906117139083613360565b60e08501526101008401516117289082612fd4565b610100850152611765565b60e0840151600092909203916117499083612fd4565b60e085015261010084015161175e9082613360565b6101008501525b50505b611770614fae565b61177d8360200151613370565b866000018760200188604001896060018a6080018b60a0018660020b60020b8152508660020b60020b8152508660020b60020b8152508660020b60020b8152508660020b60020b8152508660020b60020b815250505050505050611850604051806101000160405280336001600160a01b03168152602001896001600160a01b03168152602001886001600160a01b031681526020018762ffffff168152602001836000015160020b8152602001836020015160020b81526020018560e001518152602001856101000151815250613413565b5061016086015261014085018190526001600160801b039190911660c0850181905282516020840151855465ffffff00000019166301000000600292830b62ffffff908116919091029190911762ffffff19169290910b1617600160301b600160b01b031916600160301b90910217835560e08401516000916118d39190613360565b905060006118f485610160015186610100015161336090919063ffffffff16565b9050600061191384604001518560600151600086868b6020015161355c565b50509050600061193485608001518660a00151600087878c6020015161355c565b50509050806001600160801b0316826001600160801b03161115611a35576119c2604051806101000160405280336001600160a01b031681526020018d6001600160a01b031681526020018c6001600160a01b031681526020018b62ffffff168152602001876040015160020b8152602001876060015160020b815260200186815260200185815250613413565b506101a08a015261018089015250604085015160608601518754600292830b62ffffff908116600160b01b0262ffffff60b01b199390940b16600160c81b0262ffffff60c81b1990911617161786556001860180546001600160801b0384166001600160801b0319909116179055611b14565b611aa5604051806101000160405280336001600160a01b031681526020018d6001600160a01b031681526020018c6001600160a01b031681526020018b62ffffff168152602001876080015160020b81526020018760a0015160020b815260200186815260200185815250613413565b506101a08a015261018089015250608085015160a08601518754600292830b62ffffff908116600160b01b0262ffffff60b01b199390940b16600160c81b0262ffffff60c81b1990911617161786556001860180546001600160801b0383166001600160801b03199091161790555b602080880180516001600160a01b039081166000908152600a9093526040808420600190810180548201905592519091168352909120015460021415611b80576020808801516001600160a01b03166000908152600a90915260409020600201805460ff191660011790555b600080611b908960200151610859565b5093509350505060008054906101000a90046001600160a01b03166001600160a01b0316636eb5d4078e8e85856040518563ffffffff1660e01b8152600401611bdc9493929190615bcd565b60206040518083038186803b158015611bf457600080fd5b505afa158015611c08573d6000803e3d6000fd5b505050506040513d601f19601f82011682018060405250810190611c2c9190615618565b8015611c5557506020808a01516001600160a01b03166000908152600c909152604090205460ff165b15611d5e576005543a1115611c6957600080fd5b611c7e611c775a8c90613360565b3a90613627565b6101e08a018190526000546040516368b850bb60e01b81526001600160a01b03909116916368b850bb91611ccf91732e53716051be4bcce9f546fcfb0ef7632e505dbd91610bb89190600401615c5a565b60206040518083038186803b158015611ce757600080fd5b505afa158015611cfb573d6000803e3d6000fd5b505050506040513d601f19601f82011682018060405250810190611d1f91906159bc565b6102008a019081526020808b01516001600160a01b03166000908152600c90915260409020600101549051611d5e913391611d5991612fd4565b61364b565b611d9089602001518a61018001518b6101400151018b6101a001518c6101600151018c60e001518d6101000151612f33565b50506020890151885460018a01546040517fa25b5d6734ecac8eab8efed28486b538d745cb1bd19e0d3ab3bcc1631669641193611e089390926001600160801b03600160301b8304811693911691600281810b9263010000008304820b92600160b01b8104830b92600160c81b909104900b90615c80565b60405180910390a150505050505050505050505050565b60008181526008602052604081206001810154829190611e47906001600160a01b031661253a565b600080611e7a308460010160009054906101000a90046001600160a01b03168560020154866003015487600401546136ab565b505060058501549193509150611e909083612fd4565b6006840154909550611ea29082612fd4565b9350505050915091565b336000611ebb8385018561585b565b9050611ed4816000015182602001518360400151613131565b6000861315611eeb578051611eeb90308489613159565b6000851315611295576112958160200151308488613159565b6002546001600160a01b03163314611f1b57600080fd5b565b6001600160a01b0382166000908152600960205260408120600681015482919085908390611f56908790670de0b6b3a764000090612e84565b8354909150600090611f8a90600281810b916301000000810490910b90600160301b90046001600160801b0316858761374f565b84546001860154919250600091611fc391600160b01b8104600290810b92600160c81b909204900b906001600160801b0316868861374f565b9050611fee611fe382606001518460600151612fd490919063ffffffff16565b600287015490612fd4565b6002860155608080820151908301516120169161200b9190612fd4565b600387015490612fd4565b856003018190555061203b8160600151836060015101600160801b8760060154612e84565b85600401600082825401925050819055506120698160800151836080015101600160801b8760060154612e84565b60058601805490910190558051825161208191612fd4565b965061209e81602001518360200151612fd490919063ffffffff16565b9550896120ba5760068501546120b49089613360565b60068601555b60408083015186546001600160801b03600160301b8083048216939093038116909202600160301b600160b01b031990911617875590820151600187018054808416929092039092166001600160801b0319909116179055600685015461213457845465ffffffffffff65ffffffffffff60b01b01191685555b5050505050935093915050565b6000806000806000612151614fe3565b604080880180516001600160a01b031660009081526009602090815283822060808c015183526008909152929020905161218a906132a6565b5050506001600160a01b0392831660208801525050908116845260018201546002830154600384015460048501546121c7943094169291906136ab565b60a087018190526080870182905260608701839052604087018490526005850180549094019093556006840180549092019091556003830155600482015582516001600160a01b0316600080516020615fae8339815191521480612245575060208301516001600160a01b0316600080516020615fae833981519152145b1561235557600080600080600080516020615fae8339815191526001600160a01b031687600001516001600160a01b0316146122915786516005860154602089015160068801546122a3565b60208701516006860154885160058801545b935093509350935060006122b685613916565b9050600b60008f604001516001600160a01b03166001600160a01b0316815260200190815260200160002060009054906101000a900460ff1680156122f957508d515b801561230d57506001600160a01b03811615155b1561232f576123238e606001518487858861399f565b919c509a50985061234b565b6123458e602001518f6060015185888689613bc3565b909b5099505b5050505050612403565b60006123648460000151613916565b905060006123758560200151613916565b8b51909150801561238e57506001600160a01b03821615155b80156123a257506001600160a01b03811615155b156123d4576123c88b60600151866000015187602001518660050154876006015461399f565b91995097509550612400565b6123fa8b602001518c606001518760000151886020015187600501548860060154613bc3565b90985096505b50505b612429836000015184602001518b602001518c606001518d60c001518e60e00151613e40565b60058101546006820154600284015491995097506124479089613360565b60028301556006810154600383015461245f91613360565b6003830155600060058201819055600682015560a0890151600282015461248591613360565b60029091015550949693955091935091565b600260009054906101000a90046001600160a01b03166001600160a01b0316635aa6e6756040518163ffffffff1660e01b815260040160206040518083038186803b1580156124e557600080fd5b505afa1580156124f9573d6000803e3d6000fd5b505050506040513d601f19601f8201168201806040525081019061251d91906151b6565b6001600160a01b0316336001600160a01b031614611f1b57600080fd5b6001600160a01b03811660009081526009602052604090208054829061256f90600281810b9163010000009004900b83612812565b815461259190600160b01b8104600290810b91600160c81b9004900b85612812565b81546040516309e3d67b60e31b815260009182916001600160a01b03851691634f1eb3d8916125df913091600282810b9263010000009004900b906001600160801b03908190600401615b4e565b6040805180830381600087803b1580156125f857600080fd5b505af115801561260c573d6000803e3d6000fd5b505050506040513d601f19601f8201168201806040525081019061263091906158c5565b85546040516309e3d67b60e31b81526001600160801b039384169550918316935060009283926001600160a01b03881692634f1eb3d89261268f923092600160b01b8104600290810b93600160c81b909204900b918190600401615b4e565b6040805180830381600087803b1580156126a857600080fd5b505af11580156126bc573d6000803e3d6000fd5b505050506040513d601f19601f820116820180604052508101906126e091906158c5565b6001600160801b0391821693501690506127086126fd8584612fd4565b600288015490612fd4565b600287015561272561271a8483612fd4565b600388015490612fd4565b8660030181905550612742828501600160801b8860060154612e84565b600487018054909101905560068601546127659084830190600160801b90612e84565b60059096018054909601909555505050505050565b604051630b4c774160e11b815260009073fd98da817662ff676b38dfd5ed327db8621332fc90631698ee82906127b890879087908790600401615ba5565b60206040518083038186803b1580156127d057600080fd5b505afa1580156127e4573d6000803e3d6000fd5b505050506040513d601f19601f8201168201806040525081019061280891906151b6565b90505b9392505050565b80600061282130868685613f95565b5050505090506000816001600160801b031611156128be5760405163a34123a760e01b81526001600160a01b0383169063a34123a79061286a9088908890600090600401615d12565b6040805180830381600087803b15801561288357600080fd5b505af1158015612897573d6000803e3d6000fd5b505050506040513d601f19601f820116820180604052508101906128bb9190615783565b50505b5050505050565b6000806000806128d361502b565b6128e086602001516132a6565b600290810b900b6060880152505061ffff16608085015262ffffff166040808501919091526001600160a01b0391821660208086019190915292821684528883015190911660009081526009909252902060068101541561296b5761295c8760000151886020015189604001518a606001518b60800151614046565b92985090965094509250612e7b565b6050826080015161ffff1610156129e05786602001516001600160a01b03166332148f6760506040518263ffffffff1660e01b81526004016129ad9190615da0565b600060405180830381600087803b1580156129c757600080fd5b505af11580156129db573d6000803e3d6000fd5b505050505b6129e8614fae565b6129f58860200151613370565b600290810b810b60a088015290810b810b608087015290810b810b606086015290810b810b604085015290810b810b602084015290810b810b82528254810b900b15801590612a525750815463010000009004600290810b900b15155b15612aba5781546060840151600291820b820b910b1280612a895750815460608401516301000000909104600290810b810b91900b135b15612ab557612aaf886000015189602001518a604001518b606001518c608001516143bd565b90955093505b612e79565b612b426040518061010001604052808a600001516001600160a01b0316815260200185600001516001600160a01b0316815260200185602001516001600160a01b03168152602001856040015162ffffff168152602001836000015160020b8152602001836020015160020b81526020018a6040015181526020018a60600151815250613413565b5061012086015261010085018190526001600160801b039190911660a0850181905282516020840151855465ffffff00000019166301000000600292830b62ffffff908116919091029190911762ffffff19169290910b1617600160301b600160b01b031916600160301b9091021783556040890151600091612bc59190613360565b90506000612be58561012001518b6060015161336090919063ffffffff16565b9050612c0283604001518460600151600085858f6020015161355c565b50506001600160801b031660c0860152608083015160a084015160208c0151612c339291906000908690869061355c565b50506001600160801b0390811660e0870181905260c08701519091161115612d5c57612cd56040518061010001604052808c600001516001600160a01b0316815260200187600001516001600160a01b0316815260200187602001516001600160a01b03168152602001876040015162ffffff168152602001856040015160020b8152602001856060015160020b815260200184815260200183815250613413565b5060c0880151604087015160608801518954600292830b62ffffff908116600160b01b0262ffffff60b01b199390940b16600160c81b0262ffffff60c81b1990911617161788556001880180546001600160801b039092166001600160801b0319909216919091179055610100880151610120890151909c509a509098509650612e5e9050565b612ddc6040518061010001604052808c600001516001600160a01b0316815260200187600001516001600160a01b0316815260200187602001516001600160a01b03168152602001876040015162ffffff168152602001856080015160020b81526020018560a0015160020b815260200184815260200183815250613413565b5060e0880151608087015160a08801518954600292830b62ffffff908116600160b01b0262ffffff60b01b199390940b16600160c81b0262ffffff60c81b1990911617161788556001880180546001600160801b039092166001600160801b0319909216919091179055610100880151610120890151909c509a509098509650505b505060808801516006830154612e7391612fd4565b60068301555b505b50509193509193565b6000808060001985870986860292508281109083900303905080612eba5760008411612eaf57600080fd5b50829004905061280b565b808411612ec657600080fd5b6000848688096000868103871696879004966002600389028118808a02820302808a02820302808a02820302808a02820302808a02820302808a02909103029181900381900460010186841190950394909402919094039290920491909117919091029150509392505050565b6001600160a01b03851660009081526009602052604081208190612f578588613360565b9250612f638487613360565b91508215612f9757600281018054840190556006810154612f8b908490600160801b90612e84565b60048201805490910190555b8115612fc957600381018054830190556006810154612fbd908390600160801b90612e84565b60058201805490910190555b509550959350505050565b80820182811015612fe457600080fd5b92915050565b604080516001600160a01b038481166024830152604480830185905283518084039091018152606490920183526020820180516001600160e01b031663a9059cbb60e01b1781529251825160009485949389169392918291908083835b602083106130665780518252601f199092019160209182019101613047565b6001836020036101000a0380198251168184511680821785525050505050509050019150506000604051808303816000865af19150503d80600081146130c8576040519150601f19603f3d011682016040523d82523d6000602084013e6130cd565b606091505b50915091508180156130fb5750805115806130fb57508080602001905160208110156130f857600080fd5b50515b6128be576040805162461bcd60e51b815260206004820152600260248201526114d560f21b604482015290519081900360640190fd5b61313c83838361277a565b6001600160a01b0316336001600160a01b03161461123457600080fd5b6001600160a01b038416600080516020615fae83398151915214801561317f5750804710155b1561327357600080516020615fae8339815191526001600160a01b031663d0e30db0826040518263ffffffff1660e01b81526004016000604051808303818588803b1580156131cd57600080fd5b505af11580156131e1573d6000803e3d6000fd5b50506040805163a9059cbb60e01b81526001600160a01b0387166004820152602481018690529051600080516020615fae833981519152945063a9059cbb9350604480830193506020928290030181600087803b15801561324157600080fd5b505af1158015613255573d6000803e3d6000fd5b505050506040513d602081101561326b57600080fd5b506132a09050565b6001600160a01b0383163014156132945761328f848383612fea565b6132a0565b6132a084848484614542565b50505050565b60015460405163069f487d60e51b81526000918291829182918291829182916001600160a01b03169063d3e90fa0906132e3908b90600401615aaf565b60e06040518083038186803b1580156132fb57600080fd5b505afa15801561330f573d6000803e3d6000fd5b505050506040513d601f19601f820116820180604052508101906133339190615445565b959e949d50929b5090995097509550909350915050565b6000600160ff1b821061335c57600080fd5b5090565b80820382811115612fe457600080fd5b60035460405163802036f560e01b8152600091829182918291829182916001600160a01b039091169063802036f5906133ad908a90600401615aaf565b60c060405180830381600087803b1580156133c757600080fd5b505af11580156133db573d6000803e3d6000fd5b505050506040513d601f19601f820116820180604052508101906133ff9190615710565b949c939b5091995097509550909350915050565b60008060008061343085602001518660400151876060015161277a565b905061345185608001518660a0015160008860c001518960e001518661355c565b90505080945050806001600160a01b0316633c8a7d8d3087608001518860a00151886040518060800160405280306001600160a01b031681526020018c602001516001600160a01b031681526020018c604001516001600160a01b031681526020018c6060015162ffffff168152506040516020016134d09190615daf565b6040516020818303038152906040526040518663ffffffff1660e01b81526004016134ff959493929190615b09565b6040805180830381600087803b15801561351857600080fd5b505af115801561352c573d6000803e3d6000fd5b505050506040513d601f19601f820116820180604052508101906135509190615783565b94969095509092509050565b600080600080846001600160a01b0316633850c7bd6040518163ffffffff1660e01b815260040160e06040518083038186803b15801561359b57600080fd5b505afa1580156135af573d6000803e3d6000fd5b505050506040513d60e08110156135c557600080fd5b5051905060006135d48b614692565b905060006135e18b614692565b90506001600160801b038a1615613608576135fe8383838d6149b9565b9095509350613618565b6136158383838c8c614a55565b95505b50505096509650969350505050565b60008215806136425750508181028183828161363f57fe5b04145b612fe457600080fd5b6002546040516329bb7ba160e11b81526001600160a01b0390911690635376f7429061367d9085908590600401615ccd565b600060405180830381600087803b15801561369757600080fd5b505af1158015611295573d6000803e3d6000fd5b600154604051630f765aad60e01b81526000918291829182916001600160a01b0390911690630f765aad906136ec908c908c908c908c908c90600401615bf6565b60806040518083038186803b15801561370457600080fd5b505afa158015613718573d6000803e3d6000fd5b505050506040513d601f19601f8201168201806040525081019061373c91906159d4565b929c919b50995090975095505050505050565b61375761507f565b600080600061378061377b886001600160801b031688670de0b6b3a7640000612e84565b614b19565b90506001600160801b038716156138185760405163a34123a760e01b81526001600160a01b0386169063a34123a7906137c1908c908c908690600401615d12565b6040805180830381600087803b1580156137da57600080fd5b505af11580156137ee573d6000803e3d6000fd5b505050506040513d601f19601f820116820180604052508101906138129190615783565b90935091505b600080866001600160a01b0316634f1eb3d8308d8d6001600160801b03806040518663ffffffff1660e01b8152600401613856959493929190615b4e565b6040805180830381600087803b15801561386f57600080fd5b505af1158015613883573d6000803e3d6000fd5b505050506040513d601f19601f820116820180604052508101906138a791906158c5565b6001600160801b031691506001600160801b031691506040518060a00160405280868152602001858152602001846001600160801b031681526020016138f6878561336090919063ffffffff16565b81526020016139058387613360565b90529b9a5050505050505050505050565b60008054604051630975094d60e01b81526001600160a01b0390911690630975094d90613947908590600401615aaf565b60206040518083038186803b15801561395f57600080fd5b505afa158015613973573d6000803e3d6000fd5b505050506040513d601f19601f8201168201806040525081019061399791906151b6565b90505b919050565b600080806001600160a01b038716600080516020615fae83398151915214806139de57506001600160a01b038616600080516020615fae833981519152145b15613ac6576000805460405163d973a3e560e01b81526001600160a01b039091169063d973a3e590613a18908a9089908b90600401615ce6565b60206040518083038186803b158015613a3057600080fd5b505afa158015613a44573d6000803e3d6000fd5b505050506040513d601f19601f82011682018060405250810190613a6891906159bc565b9050613a78816006546064612e84565b9150613a848983614b2c565b8515613aa257600454613aa29089906001600160a01b031688612fea565b8415613ac057600454613ac09088906001600160a01b031687612fea565b50613ba7565b60008054604051632d2d883160e01b81526001600160a01b0390911690632d2d883190613afd908b908b908b908b90600401615bcd565b60206040518083038186803b158015613b1557600080fd5b505afa158015613b29573d6000803e3d6000fd5b505050506040513d601f19601f82011682018060405250810190613b4d91906159bc565b9050613b5d816006546064612e84565b9150613b698983614b2c565b8515613b8757600454613b879089906001600160a01b031688612fea565b8415613ba557600454613ba59088906001600160a01b031687612fea565b505b613bb387878787614b7b565b9099909850909650945050505050565b6001546040516356d7b7f560e01b8152600091829182918291829182916001600160a01b03909116906356d7b7f590613c02908b908b90600401615e83565b60806040518083038186803b158015613c1a57600080fd5b505afa158015613c2e573d6000803e3d6000fd5b505050506040513d601f19601f82011682018060405250810190613c5291906159d4565b93509350935093506000881115613d21576001600160a01b038a16600080516020615fae833981519152148015613c8757508b155b15613cfe57604051632e1a7d4d60e01b8152600080516020615fae83398151915290632e1a7d4d90613cbd908590600401615e41565b600060405180830381600087803b158015613cd757600080fd5b505af1158015613ceb573d6000803e3d6000fd5b50505050613cf98b83614bae565b613d09565b613d098a8c84612fea565b600454613d21908b906001600160a01b031686612fea565b8615613d4a57613d32898c83612fea565b600454613d4a908a906001600160a01b031685612fea565b600d54600160a81b900460ff1615613e21576000881180613d6b5750600087115b15613e215760008054600d5460405163ae841f4960e01b81526001600160a01b039092169163ae841f4991613db6918f918f918f918f91600160a01b90910460ff1690600401615c27565b60206040518083038186803b158015613dce57600080fd5b505afa158015613de2573d6000803e3d6000fd5b505050506040513d601f19601f82011682018060405250810190613e0691906159bc565b600d54909150613e1f906001600160a01b03168261364b565b505b613e2d8a8a8686614b7b565b909d909c509a5050505050505050505050565b6001600160a01b038616600080516020615fae8339815191521480613e7b57506001600160a01b038516600080516020615fae833981519152145b15613f735760008080806001600160a01b038a16600080516020615fae83398151915214613eac5789868a87613eb1565b88858b885b93509350935093508715613ee6578515613ed057613ed0828883612fea565b8415613ee157613ee1848885612fea565b613f6a565b8015613f5957604051632e1a7d4d60e01b8152600080516020615fae83398151915290632e1a7d4d90613f1d908490600401615e41565b600060405180830381600087803b158015613f3757600080fd5b505af1158015613f4b573d6000803e3d6000fd5b50505050613f598782614bae565b8215613f6a57613f6a848885612fea565b50505050611295565b8115613f8457613f84868484612fea565b801561129557611295858483612fea565b600080600080600080613fa98a8a8a614c9d565b9050866001600160a01b031663514ea4bf826040518263ffffffff1660e01b81526004018082815260200191505060a06040518083038186803b158015613fef57600080fd5b505afa158015614003573d6000803e3d6000fd5b505050506040513d60a081101561401957600080fd5b508051602082015160408301516060840151608090940151929e919d509b50919950975095505050505050565b6001600160a01b038416600090815260096020526040812081908190819061406c61502b565b60015460405163069f487d60e51b81526001600160a01b039091169063d3e90fa09061409c908d90600401615aaf565b60e06040518083038186803b1580156140b457600080fd5b505afa1580156140c8573d6000803e3d6000fd5b505050506040513d601f19601f820116820180604052508101906140ec9190615445565b600290810b810b6060890181905262ffffff90951660408901526001600160a01b03958616602089015295909416865250508454830b830b920b9190911290508061414d5750815460608201516301000000909104600290810b810b91900b135b156141695761415f8b8b8b8b8b6143bd565b90945092506143af565b81546060820151600091600160b01b9004600290810b810b91900b128015906141a9575082546060830151600160c81b909104600290810b810b91900b13155b6141b45760006141b7565b60015b60ff1690506142566040518061010001604052808e6001600160a01b0316815260200184600001516001600160a01b0316815260200184602001516001600160a01b03168152602001846040015162ffffff1681526020018560000160009054906101000a900460020b60020b81526020018560000160039054906101000a900460020b60020b8152602001838d038152602001838c03815250613413565b50846080018560a0018660c0018381525083815250836001600160801b03166001600160801b03168152505050506143266040518061010001604052808e6001600160a01b0316815260200184600001516001600160a01b0316815260200184602001516001600160a01b03168152602001846040015162ffffff1681526020018560000160169054906101000a900460020b60020b81526020018560000160199054906101000a900460020b60020b81526020018460a001518d0381526020018460c001518c03815250613413565b50610120850181905261010085018290526001600160801b0392831660e0860181905260808601518754600160301b600160b01b03198116600160301b9182900487169092018616021787556001870180546001600160801b03198116908616909201909416179092556006850180548b01905560a084015160c0850151909950975095509350505b505095509550955095915050565b6000806143c8614fae565b6143d1876132a6565b909192509091509050508360000184602001856040018362ffffff1662ffffff16815250836001600160a01b03166001600160a01b0316815250836001600160a01b03166001600160a01b0316815250505050600060096000896001600160a01b03166001600160a01b0316815260200190815260200160002090506144e36040518061010001604052808b6001600160a01b0316815260200184600001516001600160a01b0316815260200184602001516001600160a01b03168152602001846040015162ffffff1681526020018360000160169054906101000a900460020b60020b81526020018360000160199054906101000a900460020b60020b815260200189815260200188815250613413565b5060a08501819052608085018290526001600160801b0392831660609095018590526001840180548085169096019093166001600160801b03199095169490941790915560069091018054909501909455929792965091945050505050565b604080516001600160a01b0385811660248301528481166044830152606480830185905283518084039091018152608490920183526020820180516001600160e01b03166323b872dd60e01b178152925182516000948594938a169392918291908083835b602083106145c65780518252601f1990920191602091820191016145a7565b6001836020036101000a0380198251168184511680821785525050505050509050019150506000604051808303816000865af19150503d8060008114614628576040519150601f19603f3d011682016040523d82523d6000602084013e61462d565b606091505b509150915081801561465b57508051158061465b575080806020019051602081101561465857600080fd5b50515b611295576040805162461bcd60e51b815260206004820152600360248201526229aa2360e91b604482015290519081900360640190fd5b60008060008360020b126146a9578260020b6146b1565b8260020b6000035b9050620d89e88111156146ef576040805162461bcd60e51b81526020600482015260016024820152601560fa1b604482015290519081900360640190fd5b60006001821661470357600160801b614715565b6ffffcb933bd6fad37aa2d162d1a5940015b6001600160881b03169050600282161561473f576ffff97272373d413259a46990580e213a0260801c5b600482161561475e576ffff2e50f5f656932ef12357cf3c7fdcc0260801c5b600882161561477d576fffe5caca7e10e4e61c3624eaa0941cd00260801c5b601082161561479c576fffcb9843d60f6159c9db58835c9266440260801c5b60208216156147bb576fff973b41fa98c081472e6896dfb254c00260801c5b60408216156147da576fff2ea16466c96a3843ec78b326b528610260801c5b60808216156147f9576ffe5dee046a99a2a811c461f1969c30530260801c5b610100821615614819576ffcbe86c7900a88aedcffc83b479aa3a40260801c5b610200821615614839576ff987a7253ac413176f2b074cf7815e540260801c5b610400821615614859576ff3392b0822b70005940c7a398e4b70f30260801c5b610800821615614879576fe7159475a2c29b7443b29c7fa6e889d90260801c5b611000821615614899576fd097f3bdfd2022b8845ad8f792aa58250260801c5b6120008216156148b9576fa9f746462d870fdf8a65dc1f90e061e50260801c5b6140008216156148d9576f70d869a156d2a1b890bb3df62baf32f70260801c5b6180008216156148f9576f31be135f97d08fd981231505542fcfa60260801c5b6201000082161561491a576f09aa508b5b7a84e1c677de54f3e99bc90260801c5b6202000082161561493a576e5d6af8dedb81196699c329225ee6040260801c5b62040000821615614959576d2216e584f5fa1ea926041bedfe980260801c5b62080000821615614976576b048a170391f7dc42444e8fa20260801c5b60008460020b131561499157806000198161498d57fe5b0490505b600160201b8106156149a45760016149a7565b60005b60ff16602082901c0192505050919050565b600080836001600160a01b0316856001600160a01b031611156149da579293925b846001600160a01b0316866001600160a01b031611614a05576149fe858585614cee565b9150614a4c565b836001600160a01b0316866001600160a01b03161015614a3e57614a2a868585614cee565b9150614a37858785614d57565b9050614a4c565b614a49858585614d57565b90505b94509492505050565b6000836001600160a01b0316856001600160a01b03161115614a75579293925b846001600160a01b0316866001600160a01b031611614aa057614a99858585614d9a565b9050614b10565b836001600160a01b0316866001600160a01b03161015614b02576000614ac7878686614d9a565b90506000614ad6878986614dfd565b9050806001600160801b0316826001600160801b031610614af75780614af9565b815b92505050614b10565b614b0d858584614dfd565b90505b95945050505050565b60006001600160801b0382111561335c57fe5b8015614b7757614b3c828261364b565b600d54600160a81b900460ff1615614b7757600d54614b77906001600160a01b03811690611d59908490600160a01b900460ff166064612e84565b5050565b600080846001600160a01b0316866001600160a01b031610614b9e578284614ba1565b83835b9097909650945050505050565b604080516000808252602082019092526001600160a01b0384169083906040518082805190602001908083835b60208310614bfa5780518252601f199092019160209182019101614bdb565b6001836020036101000a03801982511681845116808217855250505050505090500191505060006040518083038185875af1925050503d8060008114614c5c576040519150601f19603f3d011682016040523d82523d6000602084013e614c61565b606091505b5050905080611234576040805162461bcd60e51b815260206004820152600360248201526253544560e81b604482015290519081900360640190fd5b6040805160609490941b6001600160601b031916602080860191909152600293840b60e890811b60348701529290930b90911b60378401528051808403601a018152603a9093019052815191012090565b6000826001600160a01b0316846001600160a01b03161115614d0e579192915b836001600160a01b0316614d47606060ff16846001600160801b0316901b8686036001600160a01b0316866001600160a01b0316612e84565b81614d4e57fe5b04949350505050565b6000826001600160a01b0316846001600160a01b03161115614d77579192915b612808826001600160801b03168585036001600160a01b0316600160601b612e84565b6000826001600160a01b0316846001600160a01b03161115614dba579192915b6000614ddd856001600160a01b0316856001600160a01b0316600160601b612e84565b9050614b10614df884838888036001600160a01b0316612e84565b614e3a565b6000826001600160a01b0316846001600160a01b03161115614e1d579192915b612808614df883600160601b8787036001600160a01b0316612e84565b806001600160801b038116811461399a57600080fd5b60405180610100016040528060006001600160a01b03168152602001600081526020016000815260200160008152602001600081526020016000815260200160008152602001600081525090565b604051806101200160405280600062ffffff1681526020016000815260200160006001600160a01b031681526020016000815260200160008152602001600081526020016000815260200160008152602001600081525090565b60405180610220016040528060001515815260200160006001600160a01b03168152602001600060020b815260200160006001600160a01b0316815260200160006001600160a01b0316815260200160006001600160a01b0316815260200160006001600160801b03168152602001600081526020016000815260200160008152602001600081526020016000815260200160008152602001600081526020016000815260200160008152602001600081525090565b6040805160c081018252600080825260208201819052918101829052606081018290526080810182905260a081019190915290565b6040518060c0016040528060006001600160a01b0316815260200160006001600160a01b03168152602001600081526020016000815260200160008152602001600081525090565b6040805161014081018252600080825260208201819052918101829052606081018290526080810182905260a0810182905260c0810182905260e08101829052610100810182905261012081019190915290565b6040518060a00160405280600081526020016000815260200160006001600160801b0316815260200160008152602001600081525090565b60008083601f8401126150c8578182fd5b5081356001600160401b038111156150de578182fd5b6020830191508360208285010111156150f657600080fd5b9250929050565b600082601f83011261510d578081fd5b81356001600160401b038082111561512157fe5b604051601f8301601f19168101602001828111828210171561513f57fe5b604052828152848301602001861015615156578384fd5b82602086016020830137918201602001929092529392505050565b8051600281900b811461399a57600080fd5b80516001600160801b038116811461399a57600080fd5b6000602082840312156151ab578081fd5b813561280b81615f27565b6000602082840312156151c7578081fd5b815161280b81615f27565b600080600080600060a086880312156151e9578081fd5b85516151f481615f27565b602087015190955061520581615f27565b935061521360408701615171565b925061522160608701615171565b915061522f60808701615183565b90509295509295909350565b600080600080600060a08688031215615252578283fd5b853561525d81615f27565b9450602086013561526d81615f27565b9350604086013561527d81615f27565b9250606086013561528d81615f27565b9150608086013561529d81615f27565b809150509295509295909350565b600080600080600080600060e0888a0312156152c5578485fd5b87356152d081615f27565b965060208801356152e081615f27565b955060408801356152f081615f27565b9450606088013593506080880135925060a0880135915060c08801356001600160401b0381111561531f578182fd5b61532b8a828b016150fd565b91505092959891949750929550565b6000806000806060858703121561534f578182fd5b843561535a81615f27565b9350602085013561536a81615f27565b925060408501356001600160401b03811115615384578283fd5b615390878288016150b7565b95989497509550505050565b6000806000606084860312156153b0578081fd5b83356153bb81615f27565b925060208401356153cb81615f27565b915060408401356001600160401b038111156153e5578182fd5b6153f1868287016150fd565b9150509250925092565b60008060006060848603121561540f578081fd5b833561541a81615f27565b9250602084013561542a81615f27565b9150604084013561543a81615f4d565b809150509250925092565b600080600080600080600060e0888a03121561545f578081fd5b875161546a81615f27565b602089015190975061547b81615f27565b604089015190965061548c81615f4d565b606089015190955061ffff811681146154a3578182fd5b93506154b160808901615183565b925060a08801516154c181615f27565b91506154cf60c08901615171565b905092959891949750929550565b600080604083850312156154ef578182fd5b82356154fa81615f27565b91506020838101356001600160401b0380821115615516578384fd5b818601915086601f830112615529578384fd5b6040516101408101818110838211171561553f57fe5b60405290508082855b600a8110156155705761555e8a833587016150fd565b84529285019290850190600101615548565b50959890975095505050505050565b60008060008060808587031215615594578182fd5b843561559f81615f27565b9350602085013592506040850135915060608501356155bd81615f3f565b939692955090935050565b600080600080608085870312156155dd578182fd5b84356155e881615f27565b935060208501356155f881615f5e565b9250604085013561560881615f5e565b915060608501356155bd81615f3f565b600060208284031215615629578081fd5b815161280b81615f3f565b60008060008060808587031215615649578182fd5b843561565481615f3f565b9350602085013561566481615f3f565b92506040850135915060608501356001600160401b03811115615685578182fd5b615691878288016150fd565b91505092959194509250565b600080600080600060a086880312156156b4578283fd5b85356156bf81615f3f565b945060208601356156cf81615f3f565b9350604086013592506060860135915060808601356001600160401b038111156156f7578182fd5b615703888289016150fd565b9150509295509295909350565b60008060008060008060c08789031215615728578384fd5b61573187615171565b955061573f60208801615171565b945061574d60408801615171565b935061575b60608801615171565b925061576960808801615171565b915061577760a08801615171565b90509295509295509295565b60008060408385031215615795578182fd5b505080516020909101519092909150565b600080600080606085870312156157bb578182fd5b843593506020850135925060408501356001600160401b03811115615384578283fd5b6000608082840312156157ef578081fd5b604051608081016001600160401b038111828210171561580b57fe5b604052823561581981615f27565b8152602083013561582981615f27565b6020820152604083013561583c81615f27565b6040820152606083013561584f81615f4d565b60608201529392505050565b60006060828403121561586c578081fd5b604051606081016001600160401b038111828210171561588857fe5b604052823561589681615f27565b815260208301356158a681615f27565b602082015260408301356158b981615f4d565b60408201529392505050565b600080604083850312156158d7578182fd5b6158e083615183565b91506158ee60208401615183565b90509250929050565b600060208284031215615908578081fd5b815161280b81615f4d565b60008060408385031215615925578182fd5b825161593081615f4d565b602084015190925061594181615f27565b809150509250929050565b6000806040838503121561595e578182fd5b823561596981615f4d565b946020939093013593505050565b60008060408385031215615989578182fd5b825161599481615f4d565b6020939093015192949293505050565b6000602082840312156159b5578081fd5b5035919050565b6000602082840312156159cd578081fd5b5051919050565b600080600080608085870312156159e9578182fd5b505082516020840151604085015160609095015191969095509092509050565b600080600080600060a08688031215615a20578283fd5b5050835160208501516040860151606087015160809097015192989197509594509092509050565b600060208284031215615a59578081fd5b815161280b81615f5e565b60008151808452815b81811015615a8957602081850181015186830182015201615a6d565b81811115615a9a5782602083870101525b50601f01601f19169290920160200192915050565b6001600160a01b0391909116815260200190565b6001600160a01b0386811682528515156020830152604082018590528316606082015260a060808201819052600090615afe90830184615a64565b979650505050505050565b6001600160a01b0386168152600285810b602083015284900b60408201526001600160801b038316606082015260a060808201819052600090615afe90830184615a64565b6001600160a01b03959095168552600293840b60208601529190920b60408401526001600160801b03918216606084015216608082015260a00190565b6001600160a01b0392831681529116602082015260400190565b6001600160a01b03938416815291909216602082015262ffffff909116604082015260600190565b6001600160a01b0394851681529290931660208301526040820152606081019190915260800190565b6001600160a01b03958616815293909416602084015260408301919091526060820152608081019190915260a00190565b6001600160a01b0395861681529390941660208401526040830191909152606082015260ff909116608082015260a00190565b6001600160a01b0393909316835262ffffff919091166020830152604082015260600190565b6001600160a01b039790971687526001600160801b039586166020880152939094166040860152600291820b6060860152810b608085015291820b60a0840152900b60c082015260e00190565b6001600160a01b03929092168252602082015260400190565b6001600160a01b039390931683526020830191909152604082015260600190565b901515815260200190565b600293840b81529190920b60208201526001600160801b03909116604082015260600190565b60029b8c0b8152998b0b60208b01526001600160801b0398891660408b0152968a0b60608a01529490980b60808801529190941660a086015260c085019390935260e08401929092526101008301939093526101208201526101408101919091526101600190565b61ffff91909116815260200190565b81516001600160a01b0390811682526020808401518216908301526040808401519091169082015260609182015162ffffff169181019190915260800190565b81516001600160a01b0390811682526020808401519091169082015260409182015162ffffff169181019190915260600190565b62ffffff9290921682526001600160a01b0316602082015260400190565b90815260200190565b9687526001600160a01b0395909516602087015260408601939093526060850191909152608084015260a083015260c082015260e00190565b918252602082015260400190565b9283526020830191909152604082015260600190565b93845260208401929092526040830152606082015260800190565b948552602085019390935260408401919091526060830152608082015260a00190565b978852602088019690965260408701949094526060860192909252608085015260a08401526001600160a01b0390811660c08401521660e08201526101000190565b6001600160a01b0381168114615f3c57600080fd5b50565b8015158114615f3c57600080fd5b62ffffff81168114615f3c57600080fd5b60ff81168114615f3c57600080fdfe208c22ed13bf4519e2eccef692b3084e7760c8bbc4a242b618b273acc29498bde3b53cd1a44fbf11535e145d80b8ef1ed6d57a73bf5daa7e939b6b01657d6549000000000000000000000000b91345b44a81e23848bd0f5b9ae452fd7b48d7e5a164736f6c6343000706000a",
  "linkReferences": {},
  "deployedLinkReferences": {}
}